{
	"course.sol": {
		"ClassManagement": {
			"abi": [
				{
					"inputs": [
						{
							"internalType": "string",
							"name": "_nama",
							"type": "string"
						},
						{
							"internalType": "enum Status",
							"name": "_status",
							"type": "uint8"
						},
						{
							"internalType": "uint256",
							"name": "_quota",
							"type": "uint256"
						}
					],
					"name": "addCourse",
					"outputs": [],
					"stateMutability": "nonpayable",
					"type": "function"
				},
				{
					"inputs": [
						{
							"internalType": "uint256",
							"name": "",
							"type": "uint256"
						}
					],
					"name": "courseCodes",
					"outputs": [
						{
							"internalType": "bytes32",
							"name": "",
							"type": "bytes32"
						}
					],
					"stateMutability": "view",
					"type": "function"
				},
				{
					"inputs": [
						{
							"internalType": "bytes32",
							"name": "",
							"type": "bytes32"
						}
					],
					"name": "courses",
					"outputs": [
						{
							"internalType": "string",
							"name": "nama",
							"type": "string"
						},
						{
							"internalType": "enum Status",
							"name": "status",
							"type": "uint8"
						},
						{
							"internalType": "uint256",
							"name": "quota",
							"type": "uint256"
						},
						{
							"internalType": "bool",
							"name": "exists",
							"type": "bool"
						}
					],
					"stateMutability": "view",
					"type": "function"
				},
				{
					"inputs": [
						{
							"internalType": "string",
							"name": "_nama",
							"type": "string"
						},
						{
							"internalType": "enum Status",
							"name": "_status",
							"type": "uint8"
						},
						{
							"internalType": "uint256",
							"name": "_quota",
							"type": "uint256"
						}
					],
					"name": "generateCode",
					"outputs": [
						{
							"internalType": "bytes32",
							"name": "",
							"type": "bytes32"
						}
					],
					"stateMutability": "pure",
					"type": "function"
				},
				{
					"inputs": [],
					"name": "getAllCourses",
					"outputs": [
						{
							"internalType": "bytes32[]",
							"name": "",
							"type": "bytes32[]"
						},
						{
							"internalType": "string[]",
							"name": "",
							"type": "string[]"
						},
						{
							"internalType": "enum Status[]",
							"name": "",
							"type": "uint8[]"
						},
						{
							"internalType": "uint256[]",
							"name": "",
							"type": "uint256[]"
						}
					],
					"stateMutability": "view",
					"type": "function"
				}
			],
			"devdoc": {
				"kind": "dev",
				"methods": {},
				"version": 1
			},
			"evm": {
				"assembly": "    /* \"course.sol\":187:1733  contract ClassManagement {... */\n  mstore(0x40, 0x80)\n  callvalue\n  dup1\n  iszero\n  tag_1\n  jumpi\n  revert(0x00, 0x00)\ntag_1:\n  pop\n  dataSize(sub_0)\n  dup1\n  dataOffset(sub_0)\n  0x00\n  codecopy\n  0x00\n  return\nstop\n\nsub_0: assembly {\n        /* \"course.sol\":187:1733  contract ClassManagement {... */\n      mstore(0x40, 0x80)\n      callvalue\n      dup1\n      iszero\n      tag_1\n      jumpi\n      revert(0x00, 0x00)\n    tag_1:\n      pop\n      jumpi(tag_2, lt(calldatasize, 0x04))\n      shr(0xe0, calldataload(0x00))\n      dup1\n      0x04e48bd1\n      eq\n      tag_3\n      jumpi\n      dup1\n      0x0d190374\n      eq\n      tag_4\n      jumpi\n      dup1\n      0xc4b88751\n      eq\n      tag_5\n      jumpi\n      dup1\n      0xc88a3470\n      eq\n      tag_6\n      jumpi\n      dup1\n      0xf1c9342e\n      eq\n      tag_7\n      jumpi\n    tag_2:\n      revert(0x00, 0x00)\n        /* \"course.sol\":887:1526  function getAllCourses() public view returns (bytes32[] memory, string[] memory, Status[] memory, uint[] memory) {... */\n    tag_3:\n      tag_8\n      tag_9\n      jump\t// in\n    tag_8:\n      mload(0x40)\n      tag_10\n      swap5\n      swap4\n      swap3\n      swap2\n      swap1\n      tag_11\n      jump\t// in\n    tag_10:\n      mload(0x40)\n      dup1\n      swap2\n      sub\n      swap1\n      return\n        /* \"course.sol\":300:477  function generateCode(string memory _nama, Status _status, uint _quota) public pure returns (bytes32) {... */\n    tag_4:\n      tag_12\n      0x04\n      dup1\n      calldatasize\n      sub\n      dup2\n      add\n      swap1\n      tag_13\n      swap2\n      swap1\n      tag_14\n      jump\t// in\n    tag_13:\n      tag_15\n      jump\t// in\n    tag_12:\n      mload(0x40)\n      tag_16\n      swap2\n      swap1\n      tag_17\n      jump\t// in\n    tag_16:\n      mload(0x40)\n      dup1\n      swap2\n      sub\n      swap1\n      return\n        /* \"course.sol\":218:259  mapping(bytes32 => Course) public courses */\n    tag_5:\n      tag_18\n      0x04\n      dup1\n      calldatasize\n      sub\n      dup2\n      add\n      swap1\n      tag_19\n      swap2\n      swap1\n      tag_20\n      jump\t// in\n    tag_19:\n      tag_21\n      jump\t// in\n    tag_18:\n      mload(0x40)\n      tag_22\n      swap5\n      swap4\n      swap3\n      swap2\n      swap1\n      tag_23\n      jump\t// in\n    tag_22:\n      mload(0x40)\n      dup1\n      swap2\n      sub\n      swap1\n      return\n        /* \"course.sol\":483:881  function addCourse(string memory _nama, Status _status, uint _quota) public {... */\n    tag_6:\n      tag_24\n      0x04\n      dup1\n      calldatasize\n      sub\n      dup2\n      add\n      swap1\n      tag_25\n      swap2\n      swap1\n      tag_14\n      jump\t// in\n    tag_25:\n      tag_26\n      jump\t// in\n    tag_24:\n      stop\n        /* \"course.sol\":265:293  bytes32[] public courseCodes */\n    tag_7:\n      tag_27\n      0x04\n      dup1\n      calldatasize\n      sub\n      dup2\n      add\n      swap1\n      tag_28\n      swap2\n      swap1\n      tag_29\n      jump\t// in\n    tag_28:\n      tag_30\n      jump\t// in\n    tag_27:\n      mload(0x40)\n      tag_31\n      swap2\n      swap1\n      tag_17\n      jump\t// in\n    tag_31:\n      mload(0x40)\n      dup1\n      swap2\n      sub\n      swap1\n      return\n        /* \"course.sol\":887:1526  function getAllCourses() public view returns (bytes32[] memory, string[] memory, Status[] memory, uint[] memory) {... */\n    tag_9:\n        /* \"course.sol\":933:949  bytes32[] memory */\n      0x60\n        /* \"course.sol\":951:966  string[] memory */\n      dup1\n        /* \"course.sol\":968:983  Status[] memory */\n      0x60\n        /* \"course.sol\":985:998  uint[] memory */\n      dup1\n        /* \"course.sol\":1010:1020  uint count */\n      0x00\n        /* \"course.sol\":1023:1034  courseCodes */\n      0x01\n        /* \"course.sol\":1023:1041  courseCodes.length */\n      dup1\n      sload\n      swap1\n      pop\n        /* \"course.sol\":1010:1041  uint count = courseCodes.length */\n      swap1\n      pop\n        /* \"course.sol\":1052:1073  string[] memory names */\n      0x00\n        /* \"course.sol\":1089:1094  count */\n      dup2\n        /* \"course.sol\":1076:1095  new string[](count) */\n      0xffffffffffffffff\n      dup2\n      gt\n      iszero\n      tag_33\n      jumpi\n      tag_34\n      tag_35\n      jump\t// in\n    tag_34:\n    tag_33:\n      mload(0x40)\n      swap1\n      dup1\n      dup3\n      mstore\n      dup1\n      0x20\n      mul\n      0x20\n      add\n      dup3\n      add\n      0x40\n      mstore\n      dup1\n      iszero\n      tag_36\n      jumpi\n      dup2\n      0x20\n      add\n    tag_37:\n      0x60\n      dup2\n      mstore\n      0x20\n      add\n      swap1\n      0x01\n      swap1\n      sub\n      swap1\n      dup2\n      tag_37\n      jumpi\n      swap1\n      pop\n    tag_36:\n      pop\n        /* \"course.sol\":1052:1095  string[] memory names = new string[](count) */\n      swap1\n      pop\n        /* \"course.sol\":1105:1129  Status[] memory statuses */\n      0x00\n        /* \"course.sol\":1145:1150  count */\n      dup3\n        /* \"course.sol\":1132:1151  new Status[](count) */\n      0xffffffffffffffff\n      dup2\n      gt\n      iszero\n      tag_38\n      jumpi\n      tag_39\n      tag_35\n      jump\t// in\n    tag_39:\n    tag_38:\n      mload(0x40)\n      swap1\n      dup1\n      dup3\n      mstore\n      dup1\n      0x20\n      mul\n      0x20\n      add\n      dup3\n      add\n      0x40\n      mstore\n      dup1\n      iszero\n      tag_40\n      jumpi\n      dup2\n      0x20\n      add\n      0x20\n      dup3\n      mul\n      dup1\n      calldatasize\n      dup4\n      calldatacopy\n      dup1\n      dup3\n      add\n      swap2\n      pop\n      pop\n      swap1\n      pop\n    tag_40:\n      pop\n        /* \"course.sol\":1105:1151  Status[] memory statuses = new Status[](count) */\n      swap1\n      pop\n        /* \"course.sol\":1161:1181  uint[] memory quotas */\n      0x00\n        /* \"course.sol\":1195:1200  count */\n      dup4\n        /* \"course.sol\":1184:1201  new uint[](count) */\n      0xffffffffffffffff\n      dup2\n      gt\n      iszero\n      tag_41\n      jumpi\n      tag_42\n      tag_35\n      jump\t// in\n    tag_42:\n    tag_41:\n      mload(0x40)\n      swap1\n      dup1\n      dup3\n      mstore\n      dup1\n      0x20\n      mul\n      0x20\n      add\n      dup3\n      add\n      0x40\n      mstore\n      dup1\n      iszero\n      tag_43\n      jumpi\n      dup2\n      0x20\n      add\n      0x20\n      dup3\n      mul\n      dup1\n      calldatasize\n      dup4\n      calldatacopy\n      dup1\n      dup3\n      add\n      swap2\n      pop\n      pop\n      swap1\n      pop\n    tag_43:\n      pop\n        /* \"course.sol\":1161:1201  uint[] memory quotas = new uint[](count) */\n      swap1\n      pop\n        /* \"course.sol\":1217:1223  uint i */\n      0x00\n        /* \"course.sol\":1226:1227  0 */\n      0x00\n        /* \"course.sol\":1217:1227  uint i = 0 */\n      swap1\n      pop\n        /* \"course.sol\":1212:1464  for (uint i = 0; i < count; i++) {... */\n    tag_44:\n        /* \"course.sol\":1233:1238  count */\n      dup5\n        /* \"course.sol\":1229:1230  i */\n      dup2\n        /* \"course.sol\":1229:1238  i < count */\n      lt\n        /* \"course.sol\":1212:1464  for (uint i = 0; i < count; i++) {... */\n      iszero\n      tag_45\n      jumpi\n        /* \"course.sol\":1259:1271  bytes32 code */\n      0x00\n        /* \"course.sol\":1274:1285  courseCodes */\n      0x01\n        /* \"course.sol\":1286:1287  i */\n      dup3\n        /* \"course.sol\":1274:1288  courseCodes[i] */\n      dup2\n      sload\n      dup2\n      lt\n      tag_47\n      jumpi\n      tag_48\n      tag_49\n      jump\t// in\n    tag_48:\n    tag_47:\n      swap1\n      0x00\n      mstore\n      keccak256(0x00, 0x20)\n      add\n      sload\n        /* \"course.sol\":1259:1288  bytes32 code = courseCodes[i] */\n      swap1\n      pop\n        /* \"course.sol\":1302:1322  Course memory course */\n      0x00\n        /* \"course.sol\":1325:1332  courses */\n      0x00\n        /* \"course.sol\":1325:1338  courses[code] */\n      0x00\n        /* \"course.sol\":1333:1337  code */\n      dup4\n        /* \"course.sol\":1325:1338  courses[code] */\n      dup2\n      mstore\n      0x20\n      add\n      swap1\n      dup2\n      mstore\n      0x20\n      add\n      0x00\n      keccak256\n        /* \"course.sol\":1302:1338  Course memory course = courses[code] */\n      mload(0x40)\n      dup1\n      0x80\n      add\n      0x40\n      mstore\n      swap1\n      dup2\n      0x00\n      dup3\n      add\n      dup1\n      sload\n      tag_51\n      swap1\n      tag_52\n      jump\t// in\n    tag_51:\n      dup1\n      0x1f\n      add\n      0x20\n      dup1\n      swap2\n      div\n      mul\n      0x20\n      add\n      mload(0x40)\n      swap1\n      dup2\n      add\n      0x40\n      mstore\n      dup1\n      swap3\n      swap2\n      swap1\n      dup2\n      dup2\n      mstore\n      0x20\n      add\n      dup3\n      dup1\n      sload\n      tag_53\n      swap1\n      tag_52\n      jump\t// in\n    tag_53:\n      dup1\n      iszero\n      tag_54\n      jumpi\n      dup1\n      0x1f\n      lt\n      tag_55\n      jumpi\n      0x0100\n      dup1\n      dup4\n      sload\n      div\n      mul\n      dup4\n      mstore\n      swap2\n      0x20\n      add\n      swap2\n      jump(tag_54)\n    tag_55:\n      dup3\n      add\n      swap2\n      swap1\n      0x00\n      mstore\n      keccak256(0x00, 0x20)\n      swap1\n    tag_56:\n      dup2\n      sload\n      dup2\n      mstore\n      swap1\n      0x01\n      add\n      swap1\n      0x20\n      add\n      dup1\n      dup4\n      gt\n      tag_56\n      jumpi\n      dup3\n      swap1\n      sub\n      0x1f\n      and\n      dup3\n      add\n      swap2\n    tag_54:\n      pop\n      pop\n      pop\n      pop\n      pop\n      dup2\n      mstore\n      0x20\n      add\n      0x01\n      dup3\n      add\n      0x00\n      swap1\n      sload\n      swap1\n      0x0100\n      exp\n      swap1\n      div\n      0xff\n      and\n      0x01\n      dup2\n      gt\n      iszero\n      tag_57\n      jumpi\n      tag_58\n      tag_59\n      jump\t// in\n    tag_58:\n    tag_57:\n      0x01\n      dup2\n      gt\n      iszero\n      tag_60\n      jumpi\n      tag_61\n      tag_59\n      jump\t// in\n    tag_61:\n    tag_60:\n      dup2\n      mstore\n      0x20\n      add\n      0x02\n      dup3\n      add\n      sload\n      dup2\n      mstore\n      0x20\n      add\n      0x03\n      dup3\n      add\n      0x00\n      swap1\n      sload\n      swap1\n      0x0100\n      exp\n      swap1\n      div\n      0xff\n      and\n      iszero\n      iszero\n      iszero\n      iszero\n      dup2\n      mstore\n      pop\n      pop\n      swap1\n      pop\n        /* \"course.sol\":1363:1369  course */\n      dup1\n        /* \"course.sol\":1363:1374  course.nama */\n      0x00\n      add\n      mload\n        /* \"course.sol\":1352:1357  names */\n      dup7\n        /* \"course.sol\":1358:1359  i */\n      dup5\n        /* \"course.sol\":1352:1360  names[i] */\n      dup2\n      mload\n      dup2\n      lt\n      tag_62\n      jumpi\n      tag_63\n      tag_49\n      jump\t// in\n    tag_63:\n    tag_62:\n      0x20\n      mul\n      0x20\n      add\n      add\n        /* \"course.sol\":1352:1374  names[i] = course.nama */\n      dup2\n      swap1\n      mstore\n      pop\n        /* \"course.sol\":1402:1408  course */\n      dup1\n        /* \"course.sol\":1402:1415  course.status */\n      0x20\n      add\n      mload\n        /* \"course.sol\":1388:1396  statuses */\n      dup6\n        /* \"course.sol\":1397:1398  i */\n      dup5\n        /* \"course.sol\":1388:1399  statuses[i] */\n      dup2\n      mload\n      dup2\n      lt\n      tag_64\n      jumpi\n      tag_65\n      tag_49\n      jump\t// in\n    tag_65:\n    tag_64:\n      0x20\n      mul\n      0x20\n      add\n      add\n        /* \"course.sol\":1388:1415  statuses[i] = course.status */\n      swap1\n      0x01\n      dup2\n      gt\n      iszero\n      tag_66\n      jumpi\n      tag_67\n      tag_59\n      jump\t// in\n    tag_67:\n    tag_66:\n      swap1\n      dup2\n      0x01\n      dup2\n      gt\n      iszero\n      tag_68\n      jumpi\n      tag_69\n      tag_59\n      jump\t// in\n    tag_69:\n    tag_68:\n      dup2\n      mstore\n      pop\n      pop\n        /* \"course.sol\":1441:1447  course */\n      dup1\n        /* \"course.sol\":1441:1453  course.quota */\n      0x40\n      add\n      mload\n        /* \"course.sol\":1429:1435  quotas */\n      dup5\n        /* \"course.sol\":1436:1437  i */\n      dup5\n        /* \"course.sol\":1429:1438  quotas[i] */\n      dup2\n      mload\n      dup2\n      lt\n      tag_70\n      jumpi\n      tag_71\n      tag_49\n      jump\t// in\n    tag_71:\n    tag_70:\n      0x20\n      mul\n      0x20\n      add\n      add\n        /* \"course.sol\":1429:1453  quotas[i] = course.quota */\n      dup2\n      dup2\n      mstore\n      pop\n      pop\n        /* \"course.sol\":1245:1464  {... */\n      pop\n      pop\n        /* \"course.sol\":1240:1243  i++ */\n      dup1\n      dup1\n      0x01\n      add\n      swap2\n      pop\n      pop\n        /* \"course.sol\":1212:1464  for (uint i = 0; i < count; i++) {... */\n      jump(tag_44)\n    tag_45:\n      pop\n        /* \"course.sol\":1482:1493  courseCodes */\n      0x01\n        /* \"course.sol\":1495:1500  names */\n      dup4\n        /* \"course.sol\":1502:1510  statuses */\n      dup4\n        /* \"course.sol\":1512:1518  quotas */\n      dup4\n        /* \"course.sol\":1474:1519  return (courseCodes, names, statuses, quotas) */\n      dup4\n      dup1\n      sload\n      dup1\n      0x20\n      mul\n      0x20\n      add\n      mload(0x40)\n      swap1\n      dup2\n      add\n      0x40\n      mstore\n      dup1\n      swap3\n      swap2\n      swap1\n      dup2\n      dup2\n      mstore\n      0x20\n      add\n      dup3\n      dup1\n      sload\n      dup1\n      iszero\n      tag_72\n      jumpi\n      0x20\n      mul\n      dup3\n      add\n      swap2\n      swap1\n      0x00\n      mstore\n      keccak256(0x00, 0x20)\n      swap1\n    tag_73:\n      dup2\n      sload\n      dup2\n      mstore\n      0x20\n      add\n      swap1\n      0x01\n      add\n      swap1\n      dup1\n      dup4\n      gt\n      tag_73\n      jumpi\n    tag_72:\n      pop\n      pop\n      pop\n      pop\n      pop\n      swap4\n      pop\n      swap8\n      pop\n      swap8\n      pop\n      swap8\n      pop\n      swap8\n      pop\n      pop\n      pop\n      pop\n      pop\n        /* \"course.sol\":887:1526  function getAllCourses() public view returns (bytes32[] memory, string[] memory, Status[] memory, uint[] memory) {... */\n      swap1\n      swap2\n      swap3\n      swap4\n      jump\t// out\n        /* \"course.sol\":300:477  function generateCode(string memory _nama, Status _status, uint _quota) public pure returns (bytes32) {... */\n    tag_15:\n        /* \"course.sol\":393:400  bytes32 */\n      0x00\n        /* \"course.sol\":446:451  _nama */\n      dup4\n        /* \"course.sol\":453:460  _status */\n      dup4\n        /* \"course.sol\":462:468  _quota */\n      dup4\n        /* \"course.sol\":429:469  abi.encodePacked(_nama, _status, _quota) */\n      add(0x20, mload(0x40))\n      tag_75\n      swap4\n      swap3\n      swap2\n      swap1\n      tag_76\n      jump\t// in\n    tag_75:\n      mload(0x40)\n      0x20\n      dup2\n      dup4\n      sub\n      sub\n      dup2\n      mstore\n      swap1\n      0x40\n      mstore\n        /* \"course.sol\":419:470  keccak256(abi.encodePacked(_nama, _status, _quota)) */\n      dup1\n      mload\n      swap1\n      0x20\n      add\n      keccak256\n        /* \"course.sol\":412:470  return keccak256(abi.encodePacked(_nama, _status, _quota)) */\n      swap1\n      pop\n        /* \"course.sol\":300:477  function generateCode(string memory _nama, Status _status, uint _quota) public pure returns (bytes32) {... */\n      swap4\n      swap3\n      pop\n      pop\n      pop\n      jump\t// out\n        /* \"course.sol\":218:259  mapping(bytes32 => Course) public courses */\n    tag_21:\n      mstore(0x20, 0x00)\n      dup1\n      0x00\n      mstore\n      keccak256(0x00, 0x40)\n      0x00\n      swap2\n      pop\n      swap1\n      pop\n      dup1\n      0x00\n      add\n      dup1\n      sload\n      tag_77\n      swap1\n      tag_52\n      jump\t// in\n    tag_77:\n      dup1\n      0x1f\n      add\n      0x20\n      dup1\n      swap2\n      div\n      mul\n      0x20\n      add\n      mload(0x40)\n      swap1\n      dup2\n      add\n      0x40\n      mstore\n      dup1\n      swap3\n      swap2\n      swap1\n      dup2\n      dup2\n      mstore\n      0x20\n      add\n      dup3\n      dup1\n      sload\n      tag_78\n      swap1\n      tag_52\n      jump\t// in\n    tag_78:\n      dup1\n      iszero\n      tag_79\n      jumpi\n      dup1\n      0x1f\n      lt\n      tag_80\n      jumpi\n      0x0100\n      dup1\n      dup4\n      sload\n      div\n      mul\n      dup4\n      mstore\n      swap2\n      0x20\n      add\n      swap2\n      jump(tag_79)\n    tag_80:\n      dup3\n      add\n      swap2\n      swap1\n      0x00\n      mstore\n      keccak256(0x00, 0x20)\n      swap1\n    tag_81:\n      dup2\n      sload\n      dup2\n      mstore\n      swap1\n      0x01\n      add\n      swap1\n      0x20\n      add\n      dup1\n      dup4\n      gt\n      tag_81\n      jumpi\n      dup3\n      swap1\n      sub\n      0x1f\n      and\n      dup3\n      add\n      swap2\n    tag_79:\n      pop\n      pop\n      pop\n      pop\n      pop\n      swap1\n      dup1\n      0x01\n      add\n      0x00\n      swap1\n      sload\n      swap1\n      0x0100\n      exp\n      swap1\n      div\n      0xff\n      and\n      swap1\n      dup1\n      0x02\n      add\n      sload\n      swap1\n      dup1\n      0x03\n      add\n      0x00\n      swap1\n      sload\n      swap1\n      0x0100\n      exp\n      swap1\n      div\n      0xff\n      and\n      swap1\n      pop\n      dup5\n      jump\t// out\n        /* \"course.sol\":483:881  function addCourse(string memory _nama, Status _status, uint _quota) public {... */\n    tag_26:\n        /* \"course.sol\":569:582  bytes32 _code */\n      0x00\n        /* \"course.sol\":585:621  generateCode(_nama, _status, _quota) */\n      tag_83\n        /* \"course.sol\":598:603  _nama */\n      dup5\n        /* \"course.sol\":605:612  _status */\n      dup5\n        /* \"course.sol\":614:620  _quota */\n      dup5\n        /* \"course.sol\":585:597  generateCode */\n      tag_15\n        /* \"course.sol\":585:621  generateCode(_nama, _status, _quota) */\n      jump\t// in\n    tag_83:\n        /* \"course.sol\":569:621  bytes32 _code = generateCode(_nama, _status, _quota) */\n      swap1\n      pop\n        /* \"course.sol\":640:647  courses */\n      0x00\n        /* \"course.sol\":640:654  courses[_code] */\n      0x00\n        /* \"course.sol\":648:653  _code */\n      dup3\n        /* \"course.sol\":640:654  courses[_code] */\n      dup2\n      mstore\n      0x20\n      add\n      swap1\n      dup2\n      mstore\n      0x20\n      add\n      0x00\n      keccak256\n        /* \"course.sol\":640:661  courses[_code].exists */\n      0x03\n      add\n      0x00\n      swap1\n      sload\n      swap1\n      0x0100\n      exp\n      swap1\n      div\n      0xff\n      and\n        /* \"course.sol\":639:661  !courses[_code].exists */\n      iszero\n        /* \"course.sol\":631:687  require(!courses[_code].exists, \"Course already exists\") */\n      tag_84\n      jumpi\n      mload(0x40)\n      0x08c379a000000000000000000000000000000000000000000000000000000000\n      dup2\n      mstore\n      0x04\n      add\n      tag_85\n      swap1\n      tag_86\n      jump\t// in\n    tag_85:\n      mload(0x40)\n      dup1\n      swap2\n      sub\n      swap1\n      revert\n    tag_84:\n        /* \"course.sol\":715:840  Course({... */\n      mload(0x40)\n      dup1\n      0x80\n      add\n      0x40\n      mstore\n      dup1\n        /* \"course.sol\":742:747  _nama */\n      dup6\n        /* \"course.sol\":715:840  Course({... */\n      dup2\n      mstore\n      0x20\n      add\n        /* \"course.sol\":769:776  _status */\n      dup5\n        /* \"course.sol\":715:840  Course({... */\n      0x01\n      dup2\n      gt\n      iszero\n      tag_87\n      jumpi\n      tag_88\n      tag_59\n      jump\t// in\n    tag_88:\n    tag_87:\n      dup2\n      mstore\n      0x20\n      add\n        /* \"course.sol\":797:803  _quota */\n      dup4\n        /* \"course.sol\":715:840  Course({... */\n      dup2\n      mstore\n      0x20\n      add\n        /* \"course.sol\":825:829  true */\n      0x01\n        /* \"course.sol\":715:840  Course({... */\n      iszero\n      iszero\n      dup2\n      mstore\n      pop\n        /* \"course.sol\":698:705  courses */\n      0x00\n        /* \"course.sol\":698:712  courses[_code] */\n      0x00\n        /* \"course.sol\":706:711  _code */\n      dup4\n        /* \"course.sol\":698:712  courses[_code] */\n      dup2\n      mstore\n      0x20\n      add\n      swap1\n      dup2\n      mstore\n      0x20\n      add\n      0x00\n      keccak256\n        /* \"course.sol\":698:840  courses[_code] = Course({... */\n      0x00\n      dup3\n      add\n      mload\n      dup2\n      0x00\n      add\n      swap1\n      dup2\n      tag_89\n      swap2\n      swap1\n      tag_90\n      jump\t// in\n    tag_89:\n      pop\n      0x20\n      dup3\n      add\n      mload\n      dup2\n      0x01\n      add\n      exp(0x0100, 0x00)\n      dup2\n      sload\n      dup2\n      0xff\n      mul\n      not\n      and\n      swap1\n      dup4\n      0x01\n      dup2\n      gt\n      iszero\n      tag_91\n      jumpi\n      tag_92\n      tag_59\n      jump\t// in\n    tag_92:\n    tag_91:\n      mul\n      or\n      swap1\n      sstore\n      pop\n      0x40\n      dup3\n      add\n      mload\n      dup2\n      0x02\n      add\n      sstore\n      0x60\n      dup3\n      add\n      mload\n      dup2\n      0x03\n      add\n      exp(0x0100, 0x00)\n      dup2\n      sload\n      dup2\n      0xff\n      mul\n      not\n      and\n      swap1\n      dup4\n      iszero\n      iszero\n      mul\n      or\n      swap1\n      sstore\n      pop\n      swap1\n      pop\n      pop\n        /* \"course.sol\":851:862  courseCodes */\n      0x01\n        /* \"course.sol\":868:873  _code */\n      dup2\n        /* \"course.sol\":851:874  courseCodes.push(_code) */\n      swap1\n      dup1\n      0x01\n      dup2\n      sload\n      add\n      dup1\n      dup3\n      sstore\n      dup1\n      swap2\n      pop\n      pop\n      0x01\n      swap1\n      sub\n      swap1\n      0x00\n      mstore\n      keccak256(0x00, 0x20)\n      add\n      0x00\n      swap1\n      swap2\n      swap1\n      swap2\n      swap1\n      swap2\n      pop\n      sstore\n        /* \"course.sol\":559:881  {... */\n      pop\n        /* \"course.sol\":483:881  function addCourse(string memory _nama, Status _status, uint _quota) public {... */\n      pop\n      pop\n      pop\n      jump\t// out\n        /* \"course.sol\":265:293  bytes32[] public courseCodes */\n    tag_30:\n      0x01\n      dup2\n      dup2\n      sload\n      dup2\n      lt\n      tag_94\n      jumpi\n      0x00\n      dup1\n      revert\n    tag_94:\n      swap1\n      0x00\n      mstore\n      keccak256(0x00, 0x20)\n      add\n      0x00\n      swap2\n      pop\n      swap1\n      pop\n      sload\n      dup2\n      jump\t// out\n        /* \"#utility.yul\":7:121   */\n    tag_96:\n        /* \"#utility.yul\":74:80   */\n      0x00\n        /* \"#utility.yul\":108:113   */\n      dup2\n        /* \"#utility.yul\":102:114   */\n      mload\n        /* \"#utility.yul\":92:114   */\n      swap1\n      pop\n        /* \"#utility.yul\":7:121   */\n      swap2\n      swap1\n      pop\n      jump\t// out\n        /* \"#utility.yul\":127:311   */\n    tag_97:\n        /* \"#utility.yul\":226:237   */\n      0x00\n        /* \"#utility.yul\":260:266   */\n      dup3\n        /* \"#utility.yul\":255:258   */\n      dup3\n        /* \"#utility.yul\":248:267   */\n      mstore\n        /* \"#utility.yul\":300:304   */\n      0x20\n        /* \"#utility.yul\":295:298   */\n      dup3\n        /* \"#utility.yul\":291:305   */\n      add\n        /* \"#utility.yul\":276:305   */\n      swap1\n      pop\n        /* \"#utility.yul\":127:311   */\n      swap3\n      swap2\n      pop\n      pop\n      jump\t// out\n        /* \"#utility.yul\":317:449   */\n    tag_98:\n        /* \"#utility.yul\":384:388   */\n      0x00\n        /* \"#utility.yul\":407:410   */\n      dup2\n        /* \"#utility.yul\":399:410   */\n      swap1\n      pop\n        /* \"#utility.yul\":437:441   */\n      0x20\n        /* \"#utility.yul\":432:435   */\n      dup3\n        /* \"#utility.yul\":428:442   */\n      add\n        /* \"#utility.yul\":420:442   */\n      swap1\n      pop\n        /* \"#utility.yul\":317:449   */\n      swap2\n      swap1\n      pop\n      jump\t// out\n        /* \"#utility.yul\":455:532   */\n    tag_99:\n        /* \"#utility.yul\":492:499   */\n      0x00\n        /* \"#utility.yul\":521:526   */\n      dup2\n        /* \"#utility.yul\":510:526   */\n      swap1\n      pop\n        /* \"#utility.yul\":455:532   */\n      swap2\n      swap1\n      pop\n      jump\t// out\n        /* \"#utility.yul\":538:646   */\n    tag_100:\n        /* \"#utility.yul\":615:639   */\n      tag_188\n        /* \"#utility.yul\":633:638   */\n      dup2\n        /* \"#utility.yul\":615:639   */\n      tag_99\n      jump\t// in\n    tag_188:\n        /* \"#utility.yul\":610:613   */\n      dup3\n        /* \"#utility.yul\":603:640   */\n      mstore\n        /* \"#utility.yul\":538:646   */\n      pop\n      pop\n      jump\t// out\n        /* \"#utility.yul\":652:831   */\n    tag_101:\n        /* \"#utility.yul\":721:731   */\n      0x00\n        /* \"#utility.yul\":742:788   */\n      tag_190\n        /* \"#utility.yul\":784:787   */\n      dup4\n        /* \"#utility.yul\":776:782   */\n      dup4\n        /* \"#utility.yul\":742:788   */\n      tag_100\n      jump\t// in\n    tag_190:\n        /* \"#utility.yul\":820:824   */\n      0x20\n        /* \"#utility.yul\":815:818   */\n      dup4\n        /* \"#utility.yul\":811:825   */\n      add\n        /* \"#utility.yul\":797:825   */\n      swap1\n      pop\n        /* \"#utility.yul\":652:831   */\n      swap3\n      swap2\n      pop\n      pop\n      jump\t// out\n        /* \"#utility.yul\":837:950   */\n    tag_102:\n        /* \"#utility.yul\":907:911   */\n      0x00\n        /* \"#utility.yul\":939:943   */\n      0x20\n        /* \"#utility.yul\":934:937   */\n      dup3\n        /* \"#utility.yul\":930:944   */\n      add\n        /* \"#utility.yul\":922:944   */\n      swap1\n      pop\n        /* \"#utility.yul\":837:950   */\n      swap2\n      swap1\n      pop\n      jump\t// out\n        /* \"#utility.yul\":986:1718   */\n    tag_103:\n        /* \"#utility.yul\":1105:1108   */\n      0x00\n        /* \"#utility.yul\":1134:1188   */\n      tag_193\n        /* \"#utility.yul\":1182:1187   */\n      dup3\n        /* \"#utility.yul\":1134:1188   */\n      tag_96\n      jump\t// in\n    tag_193:\n        /* \"#utility.yul\":1204:1290   */\n      tag_194\n        /* \"#utility.yul\":1283:1289   */\n      dup2\n        /* \"#utility.yul\":1278:1281   */\n      dup6\n        /* \"#utility.yul\":1204:1290   */\n      tag_97\n      jump\t// in\n    tag_194:\n        /* \"#utility.yul\":1197:1290   */\n      swap4\n      pop\n        /* \"#utility.yul\":1314:1370   */\n      tag_195\n        /* \"#utility.yul\":1364:1369   */\n      dup4\n        /* \"#utility.yul\":1314:1370   */\n      tag_98\n      jump\t// in\n    tag_195:\n        /* \"#utility.yul\":1393:1400   */\n      dup1\n        /* \"#utility.yul\":1424:1425   */\n      0x00\n        /* \"#utility.yul\":1409:1693   */\n    tag_196:\n        /* \"#utility.yul\":1434:1440   */\n      dup4\n        /* \"#utility.yul\":1431:1432   */\n      dup2\n        /* \"#utility.yul\":1428:1441   */\n      lt\n        /* \"#utility.yul\":1409:1693   */\n      iszero\n      tag_198\n      jumpi\n        /* \"#utility.yul\":1510:1516   */\n      dup2\n        /* \"#utility.yul\":1504:1517   */\n      mload\n        /* \"#utility.yul\":1537:1600   */\n      tag_199\n        /* \"#utility.yul\":1596:1599   */\n      dup9\n        /* \"#utility.yul\":1581:1594   */\n      dup3\n        /* \"#utility.yul\":1537:1600   */\n      tag_101\n      jump\t// in\n    tag_199:\n        /* \"#utility.yul\":1530:1600   */\n      swap8\n      pop\n        /* \"#utility.yul\":1623:1683   */\n      tag_200\n        /* \"#utility.yul\":1676:1682   */\n      dup4\n        /* \"#utility.yul\":1623:1683   */\n      tag_102\n      jump\t// in\n    tag_200:\n        /* \"#utility.yul\":1613:1683   */\n      swap3\n      pop\n        /* \"#utility.yul\":1469:1693   */\n      pop\n        /* \"#utility.yul\":1456:1457   */\n      0x01\n        /* \"#utility.yul\":1453:1454   */\n      dup2\n        /* \"#utility.yul\":1449:1458   */\n      add\n        /* \"#utility.yul\":1444:1458   */\n      swap1\n      pop\n        /* \"#utility.yul\":1409:1693   */\n      jump(tag_196)\n    tag_198:\n        /* \"#utility.yul\":1413:1427   */\n      pop\n        /* \"#utility.yul\":1709:1712   */\n      dup6\n        /* \"#utility.yul\":1702:1712   */\n      swap4\n      pop\n        /* \"#utility.yul\":1110:1718   */\n      pop\n      pop\n      pop\n        /* \"#utility.yul\":986:1718   */\n      swap3\n      swap2\n      pop\n      pop\n      jump\t// out\n        /* \"#utility.yul\":1724:1848   */\n    tag_104:\n        /* \"#utility.yul\":1801:1807   */\n      0x00\n        /* \"#utility.yul\":1835:1840   */\n      dup2\n        /* \"#utility.yul\":1829:1841   */\n      mload\n        /* \"#utility.yul\":1819:1841   */\n      swap1\n      pop\n        /* \"#utility.yul\":1724:1848   */\n      swap2\n      swap1\n      pop\n      jump\t// out\n        /* \"#utility.yul\":1854:2048   */\n    tag_105:\n        /* \"#utility.yul\":1963:1974   */\n      0x00\n        /* \"#utility.yul\":1997:2003   */\n      dup3\n        /* \"#utility.yul\":1992:1995   */\n      dup3\n        /* \"#utility.yul\":1985:2004   */\n      mstore\n        /* \"#utility.yul\":2037:2041   */\n      0x20\n        /* \"#utility.yul\":2032:2035   */\n      dup3\n        /* \"#utility.yul\":2028:2042   */\n      add\n        /* \"#utility.yul\":2013:2042   */\n      swap1\n      pop\n        /* \"#utility.yul\":1854:2048   */\n      swap3\n      swap2\n      pop\n      pop\n      jump\t// out\n        /* \"#utility.yul\":2054:2196   */\n    tag_106:\n        /* \"#utility.yul\":2131:2135   */\n      0x00\n        /* \"#utility.yul\":2154:2157   */\n      dup2\n        /* \"#utility.yul\":2146:2157   */\n      swap1\n      pop\n        /* \"#utility.yul\":2184:2188   */\n      0x20\n        /* \"#utility.yul\":2179:2182   */\n      dup3\n        /* \"#utility.yul\":2175:2189   */\n      add\n        /* \"#utility.yul\":2167:2189   */\n      swap1\n      pop\n        /* \"#utility.yul\":2054:2196   */\n      swap2\n      swap1\n      pop\n      jump\t// out\n        /* \"#utility.yul\":2202:2301   */\n    tag_107:\n        /* \"#utility.yul\":2254:2260   */\n      0x00\n        /* \"#utility.yul\":2288:2293   */\n      dup2\n        /* \"#utility.yul\":2282:2294   */\n      mload\n        /* \"#utility.yul\":2272:2294   */\n      swap1\n      pop\n        /* \"#utility.yul\":2202:2301   */\n      swap2\n      swap1\n      pop\n      jump\t// out\n        /* \"#utility.yul\":2307:2466   */\n    tag_108:\n        /* \"#utility.yul\":2381:2392   */\n      0x00\n        /* \"#utility.yul\":2415:2421   */\n      dup3\n        /* \"#utility.yul\":2410:2413   */\n      dup3\n        /* \"#utility.yul\":2403:2422   */\n      mstore\n        /* \"#utility.yul\":2455:2459   */\n      0x20\n        /* \"#utility.yul\":2450:2453   */\n      dup3\n        /* \"#utility.yul\":2446:2460   */\n      add\n        /* \"#utility.yul\":2431:2460   */\n      swap1\n      pop\n        /* \"#utility.yul\":2307:2466   */\n      swap3\n      swap2\n      pop\n      pop\n      jump\t// out\n        /* \"#utility.yul\":2472:2611   */\n    tag_109:\n        /* \"#utility.yul\":2561:2567   */\n      dup3\n        /* \"#utility.yul\":2556:2559   */\n      dup2\n        /* \"#utility.yul\":2551:2554   */\n      dup4\n        /* \"#utility.yul\":2545:2568   */\n      mcopy\n        /* \"#utility.yul\":2602:2603   */\n      0x00\n        /* \"#utility.yul\":2593:2599   */\n      dup4\n        /* \"#utility.yul\":2588:2591   */\n      dup4\n        /* \"#utility.yul\":2584:2600   */\n      add\n        /* \"#utility.yul\":2577:2604   */\n      mstore\n        /* \"#utility.yul\":2472:2611   */\n      pop\n      pop\n      pop\n      jump\t// out\n        /* \"#utility.yul\":2617:2719   */\n    tag_110:\n        /* \"#utility.yul\":2658:2664   */\n      0x00\n        /* \"#utility.yul\":2709:2711   */\n      0x1f\n        /* \"#utility.yul\":2705:2712   */\n      not\n        /* \"#utility.yul\":2700:2702   */\n      0x1f\n        /* \"#utility.yul\":2693:2698   */\n      dup4\n        /* \"#utility.yul\":2689:2703   */\n      add\n        /* \"#utility.yul\":2685:2713   */\n      and\n        /* \"#utility.yul\":2675:2713   */\n      swap1\n      pop\n        /* \"#utility.yul\":2617:2719   */\n      swap2\n      swap1\n      pop\n      jump\t// out\n        /* \"#utility.yul\":2725:3082   */\n    tag_111:\n        /* \"#utility.yul\":2803:2806   */\n      0x00\n        /* \"#utility.yul\":2831:2870   */\n      tag_209\n        /* \"#utility.yul\":2864:2869   */\n      dup3\n        /* \"#utility.yul\":2831:2870   */\n      tag_107\n      jump\t// in\n    tag_209:\n        /* \"#utility.yul\":2886:2947   */\n      tag_210\n        /* \"#utility.yul\":2940:2946   */\n      dup2\n        /* \"#utility.yul\":2935:2938   */\n      dup6\n        /* \"#utility.yul\":2886:2947   */\n      tag_108\n      jump\t// in\n    tag_210:\n        /* \"#utility.yul\":2879:2947   */\n      swap4\n      pop\n        /* \"#utility.yul\":2956:3021   */\n      tag_211\n        /* \"#utility.yul\":3014:3020   */\n      dup2\n        /* \"#utility.yul\":3009:3012   */\n      dup6\n        /* \"#utility.yul\":3002:3006   */\n      0x20\n        /* \"#utility.yul\":2995:3000   */\n      dup7\n        /* \"#utility.yul\":2991:3007   */\n      add\n        /* \"#utility.yul\":2956:3021   */\n      tag_109\n      jump\t// in\n    tag_211:\n        /* \"#utility.yul\":3046:3075   */\n      tag_212\n        /* \"#utility.yul\":3068:3074   */\n      dup2\n        /* \"#utility.yul\":3046:3075   */\n      tag_110\n      jump\t// in\n    tag_212:\n        /* \"#utility.yul\":3041:3044   */\n      dup5\n        /* \"#utility.yul\":3037:3076   */\n      add\n        /* \"#utility.yul\":3030:3076   */\n      swap2\n      pop\n        /* \"#utility.yul\":2807:3082   */\n      pop\n        /* \"#utility.yul\":2725:3082   */\n      swap3\n      swap2\n      pop\n      pop\n      jump\t// out\n        /* \"#utility.yul\":3088:3284   */\n    tag_112:\n        /* \"#utility.yul\":3177:3187   */\n      0x00\n        /* \"#utility.yul\":3212:3278   */\n      tag_214\n        /* \"#utility.yul\":3274:3277   */\n      dup4\n        /* \"#utility.yul\":3266:3272   */\n      dup4\n        /* \"#utility.yul\":3212:3278   */\n      tag_111\n      jump\t// in\n    tag_214:\n        /* \"#utility.yul\":3198:3278   */\n      swap1\n      pop\n        /* \"#utility.yul\":3088:3284   */\n      swap3\n      swap2\n      pop\n      pop\n      jump\t// out\n        /* \"#utility.yul\":3290:3413   */\n    tag_113:\n        /* \"#utility.yul\":3370:3374   */\n      0x00\n        /* \"#utility.yul\":3402:3406   */\n      0x20\n        /* \"#utility.yul\":3397:3400   */\n      dup3\n        /* \"#utility.yul\":3393:3407   */\n      add\n        /* \"#utility.yul\":3385:3407   */\n      swap1\n      pop\n        /* \"#utility.yul\":3290:3413   */\n      swap2\n      swap1\n      pop\n      jump\t// out\n        /* \"#utility.yul\":3447:4438   */\n    tag_114:\n        /* \"#utility.yul\":3586:3589   */\n      0x00\n        /* \"#utility.yul\":3615:3679   */\n      tag_217\n        /* \"#utility.yul\":3673:3678   */\n      dup3\n        /* \"#utility.yul\":3615:3679   */\n      tag_104\n      jump\t// in\n    tag_217:\n        /* \"#utility.yul\":3695:3791   */\n      tag_218\n        /* \"#utility.yul\":3784:3790   */\n      dup2\n        /* \"#utility.yul\":3779:3782   */\n      dup6\n        /* \"#utility.yul\":3695:3791   */\n      tag_105\n      jump\t// in\n    tag_218:\n        /* \"#utility.yul\":3688:3791   */\n      swap4\n      pop\n        /* \"#utility.yul\":3817:3820   */\n      dup4\n        /* \"#utility.yul\":3862:3866   */\n      0x20\n        /* \"#utility.yul\":3854:3860   */\n      dup3\n        /* \"#utility.yul\":3850:3867   */\n      mul\n        /* \"#utility.yul\":3845:3848   */\n      dup6\n        /* \"#utility.yul\":3841:3868   */\n      add\n        /* \"#utility.yul\":3892:3958   */\n      tag_219\n        /* \"#utility.yul\":3952:3957   */\n      dup6\n        /* \"#utility.yul\":3892:3958   */\n      tag_106\n      jump\t// in\n    tag_219:\n        /* \"#utility.yul\":3981:3988   */\n      dup1\n        /* \"#utility.yul\":4012:4013   */\n      0x00\n        /* \"#utility.yul\":3997:4393   */\n    tag_220:\n        /* \"#utility.yul\":4022:4028   */\n      dup6\n        /* \"#utility.yul\":4019:4020   */\n      dup2\n        /* \"#utility.yul\":4016:4029   */\n      lt\n        /* \"#utility.yul\":3997:4393   */\n      iszero\n      tag_222\n      jumpi\n        /* \"#utility.yul\":4093:4102   */\n      dup5\n        /* \"#utility.yul\":4087:4091   */\n      dup5\n        /* \"#utility.yul\":4083:4103   */\n      sub\n        /* \"#utility.yul\":4078:4081   */\n      dup10\n        /* \"#utility.yul\":4071:4104   */\n      mstore\n        /* \"#utility.yul\":4144:4150   */\n      dup2\n        /* \"#utility.yul\":4138:4151   */\n      mload\n        /* \"#utility.yul\":4172:4256   */\n      tag_223\n        /* \"#utility.yul\":4251:4255   */\n      dup6\n        /* \"#utility.yul\":4236:4249   */\n      dup3\n        /* \"#utility.yul\":4172:4256   */\n      tag_112\n      jump\t// in\n    tag_223:\n        /* \"#utility.yul\":4164:4256   */\n      swap5\n      pop\n        /* \"#utility.yul\":4279:4349   */\n      tag_224\n        /* \"#utility.yul\":4342:4348   */\n      dup4\n        /* \"#utility.yul\":4279:4349   */\n      tag_113\n      jump\t// in\n    tag_224:\n        /* \"#utility.yul\":4269:4349   */\n      swap3\n      pop\n        /* \"#utility.yul\":4378:4382   */\n      0x20\n        /* \"#utility.yul\":4373:4376   */\n      dup11\n        /* \"#utility.yul\":4369:4383   */\n      add\n        /* \"#utility.yul\":4362:4383   */\n      swap10\n      pop\n        /* \"#utility.yul\":4057:4393   */\n      pop\n        /* \"#utility.yul\":4044:4045   */\n      0x01\n        /* \"#utility.yul\":4041:4042   */\n      dup2\n        /* \"#utility.yul\":4037:4046   */\n      add\n        /* \"#utility.yul\":4032:4046   */\n      swap1\n      pop\n        /* \"#utility.yul\":3997:4393   */\n      jump(tag_220)\n    tag_222:\n        /* \"#utility.yul\":4001:4015   */\n      pop\n        /* \"#utility.yul\":4409:4413   */\n      dup3\n        /* \"#utility.yul\":4402:4413   */\n      swap8\n      pop\n        /* \"#utility.yul\":4429:4432   */\n      dup8\n        /* \"#utility.yul\":4422:4432   */\n      swap6\n      pop\n        /* \"#utility.yul\":3591:4438   */\n      pop\n      pop\n      pop\n      pop\n      pop\n        /* \"#utility.yul\":3447:4438   */\n      swap3\n      swap2\n      pop\n      pop\n      jump\t// out\n        /* \"#utility.yul\":4444:4566   */\n    tag_115:\n        /* \"#utility.yul\":4519:4525   */\n      0x00\n        /* \"#utility.yul\":4553:4558   */\n      dup2\n        /* \"#utility.yul\":4547:4559   */\n      mload\n        /* \"#utility.yul\":4537:4559   */\n      swap1\n      pop\n        /* \"#utility.yul\":4444:4566   */\n      swap2\n      swap1\n      pop\n      jump\t// out\n        /* \"#utility.yul\":4572:4754   */\n    tag_116:\n        /* \"#utility.yul\":4669:4680   */\n      0x00\n        /* \"#utility.yul\":4703:4709   */\n      dup3\n        /* \"#utility.yul\":4698:4701   */\n      dup3\n        /* \"#utility.yul\":4691:4710   */\n      mstore\n        /* \"#utility.yul\":4743:4747   */\n      0x20\n        /* \"#utility.yul\":4738:4741   */\n      dup3\n        /* \"#utility.yul\":4734:4748   */\n      add\n        /* \"#utility.yul\":4719:4748   */\n      swap1\n      pop\n        /* \"#utility.yul\":4572:4754   */\n      swap3\n      swap2\n      pop\n      pop\n      jump\t// out\n        /* \"#utility.yul\":4760:4900   */\n    tag_117:\n        /* \"#utility.yul\":4835:4839   */\n      0x00\n        /* \"#utility.yul\":4858:4861   */\n      dup2\n        /* \"#utility.yul\":4850:4861   */\n      swap1\n      pop\n        /* \"#utility.yul\":4888:4892   */\n      0x20\n        /* \"#utility.yul\":4883:4886   */\n      dup3\n        /* \"#utility.yul\":4879:4893   */\n      add\n        /* \"#utility.yul\":4871:4893   */\n      swap1\n      pop\n        /* \"#utility.yul\":4760:4900   */\n      swap2\n      swap1\n      pop\n      jump\t// out\n        /* \"#utility.yul\":4906:5086   */\n    tag_59:\n        /* \"#utility.yul\":4954:5031   */\n      0x4e487b7100000000000000000000000000000000000000000000000000000000\n        /* \"#utility.yul\":4951:4952   */\n      0x00\n        /* \"#utility.yul\":4944:5032   */\n      mstore\n        /* \"#utility.yul\":5051:5055   */\n      0x21\n        /* \"#utility.yul\":5048:5049   */\n      0x04\n        /* \"#utility.yul\":5041:5056   */\n      mstore\n        /* \"#utility.yul\":5075:5079   */\n      0x24\n        /* \"#utility.yul\":5072:5073   */\n      0x00\n        /* \"#utility.yul\":5065:5080   */\n      revert\n        /* \"#utility.yul\":5092:5205   */\n    tag_118:\n        /* \"#utility.yul\":5173:5174   */\n      0x02\n        /* \"#utility.yul\":5166:5171   */\n      dup2\n        /* \"#utility.yul\":5163:5175   */\n      lt\n        /* \"#utility.yul\":5153:5199   */\n      tag_230\n      jumpi\n        /* \"#utility.yul\":5179:5197   */\n      tag_231\n      tag_59\n      jump\t// in\n    tag_231:\n        /* \"#utility.yul\":5153:5199   */\n    tag_230:\n        /* \"#utility.yul\":5092:5205   */\n      pop\n      jump\t// out\n        /* \"#utility.yul\":5211:5338   */\n    tag_119:\n        /* \"#utility.yul\":5256:5263   */\n      0x00\n        /* \"#utility.yul\":5285:5290   */\n      dup2\n        /* \"#utility.yul\":5274:5290   */\n      swap1\n      pop\n        /* \"#utility.yul\":5291:5332   */\n      tag_233\n        /* \"#utility.yul\":5326:5331   */\n      dup3\n        /* \"#utility.yul\":5291:5332   */\n      tag_118\n      jump\t// in\n    tag_233:\n        /* \"#utility.yul\":5211:5338   */\n      swap2\n      swap1\n      pop\n      jump\t// out\n        /* \"#utility.yul\":5344:5471   */\n    tag_120:\n        /* \"#utility.yul\":5400:5409   */\n      0x00\n        /* \"#utility.yul\":5433:5465   */\n      tag_235\n        /* \"#utility.yul\":5459:5464   */\n      dup3\n        /* \"#utility.yul\":5433:5465   */\n      tag_119\n      jump\t// in\n    tag_235:\n        /* \"#utility.yul\":5420:5465   */\n      swap1\n      pop\n        /* \"#utility.yul\":5344:5471   */\n      swap2\n      swap1\n      pop\n      jump\t// out\n        /* \"#utility.yul\":5477:5610   */\n    tag_121:\n        /* \"#utility.yul\":5560:5603   */\n      tag_237\n        /* \"#utility.yul\":5597:5602   */\n      dup2\n        /* \"#utility.yul\":5560:5603   */\n      tag_120\n      jump\t// in\n    tag_237:\n        /* \"#utility.yul\":5555:5558   */\n      dup3\n        /* \"#utility.yul\":5548:5604   */\n      mstore\n        /* \"#utility.yul\":5477:5610   */\n      pop\n      pop\n      jump\t// out\n        /* \"#utility.yul\":5616:5807   */\n    tag_122:\n        /* \"#utility.yul\":5691:5701   */\n      0x00\n        /* \"#utility.yul\":5712:5764   */\n      tag_239\n        /* \"#utility.yul\":5760:5763   */\n      dup4\n        /* \"#utility.yul\":5752:5758   */\n      dup4\n        /* \"#utility.yul\":5712:5764   */\n      tag_121\n      jump\t// in\n    tag_239:\n        /* \"#utility.yul\":5796:5800   */\n      0x20\n        /* \"#utility.yul\":5791:5794   */\n      dup4\n        /* \"#utility.yul\":5787:5801   */\n      add\n        /* \"#utility.yul\":5773:5801   */\n      swap1\n      pop\n        /* \"#utility.yul\":5616:5807   */\n      swap3\n      swap2\n      pop\n      pop\n      jump\t// out\n        /* \"#utility.yul\":5813:5934   */\n    tag_123:\n        /* \"#utility.yul\":5891:5895   */\n      0x00\n        /* \"#utility.yul\":5923:5927   */\n      0x20\n        /* \"#utility.yul\":5918:5921   */\n      dup3\n        /* \"#utility.yul\":5914:5928   */\n      add\n        /* \"#utility.yul\":5906:5928   */\n      swap1\n      pop\n        /* \"#utility.yul\":5813:5934   */\n      swap2\n      swap1\n      pop\n      jump\t// out\n        /* \"#utility.yul\":5972:6738   */\n    tag_124:\n        /* \"#utility.yul\":6097:6100   */\n      0x00\n        /* \"#utility.yul\":6126:6188   */\n      tag_242\n        /* \"#utility.yul\":6182:6187   */\n      dup3\n        /* \"#utility.yul\":6126:6188   */\n      tag_115\n      jump\t// in\n    tag_242:\n        /* \"#utility.yul\":6204:6288   */\n      tag_243\n        /* \"#utility.yul\":6281:6287   */\n      dup2\n        /* \"#utility.yul\":6276:6279   */\n      dup6\n        /* \"#utility.yul\":6204:6288   */\n      tag_116\n      jump\t// in\n    tag_243:\n        /* \"#utility.yul\":6197:6288   */\n      swap4\n      pop\n        /* \"#utility.yul\":6312:6376   */\n      tag_244\n        /* \"#utility.yul\":6370:6375   */\n      dup4\n        /* \"#utility.yul\":6312:6376   */\n      tag_117\n      jump\t// in\n    tag_244:\n        /* \"#utility.yul\":6399:6406   */\n      dup1\n        /* \"#utility.yul\":6430:6431   */\n      0x00\n        /* \"#utility.yul\":6415:6713   */\n    tag_245:\n        /* \"#utility.yul\":6440:6446   */\n      dup4\n        /* \"#utility.yul\":6437:6438   */\n      dup2\n        /* \"#utility.yul\":6434:6447   */\n      lt\n        /* \"#utility.yul\":6415:6713   */\n      iszero\n      tag_247\n      jumpi\n        /* \"#utility.yul\":6516:6522   */\n      dup2\n        /* \"#utility.yul\":6510:6523   */\n      mload\n        /* \"#utility.yul\":6543:6612   */\n      tag_248\n        /* \"#utility.yul\":6608:6611   */\n      dup9\n        /* \"#utility.yul\":6593:6606   */\n      dup3\n        /* \"#utility.yul\":6543:6612   */\n      tag_122\n      jump\t// in\n    tag_248:\n        /* \"#utility.yul\":6536:6612   */\n      swap8\n      pop\n        /* \"#utility.yul\":6635:6703   */\n      tag_249\n        /* \"#utility.yul\":6696:6702   */\n      dup4\n        /* \"#utility.yul\":6635:6703   */\n      tag_123\n      jump\t// in\n    tag_249:\n        /* \"#utility.yul\":6625:6703   */\n      swap3\n      pop\n        /* \"#utility.yul\":6475:6713   */\n      pop\n        /* \"#utility.yul\":6462:6463   */\n      0x01\n        /* \"#utility.yul\":6459:6460   */\n      dup2\n        /* \"#utility.yul\":6455:6464   */\n      add\n        /* \"#utility.yul\":6450:6464   */\n      swap1\n      pop\n        /* \"#utility.yul\":6415:6713   */\n      jump(tag_245)\n    tag_247:\n        /* \"#utility.yul\":6419:6433   */\n      pop\n        /* \"#utility.yul\":6729:6732   */\n      dup6\n        /* \"#utility.yul\":6722:6732   */\n      swap4\n      pop\n        /* \"#utility.yul\":6102:6738   */\n      pop\n      pop\n      pop\n        /* \"#utility.yul\":5972:6738   */\n      swap3\n      swap2\n      pop\n      pop\n      jump\t// out\n        /* \"#utility.yul\":6744:6858   */\n    tag_125:\n        /* \"#utility.yul\":6811:6817   */\n      0x00\n        /* \"#utility.yul\":6845:6850   */\n      dup2\n        /* \"#utility.yul\":6839:6851   */\n      mload\n        /* \"#utility.yul\":6829:6851   */\n      swap1\n      pop\n        /* \"#utility.yul\":6744:6858   */\n      swap2\n      swap1\n      pop\n      jump\t// out\n        /* \"#utility.yul\":6864:7048   */\n    tag_126:\n        /* \"#utility.yul\":6963:6974   */\n      0x00\n        /* \"#utility.yul\":6997:7003   */\n      dup3\n        /* \"#utility.yul\":6992:6995   */\n      dup3\n        /* \"#utility.yul\":6985:7004   */\n      mstore\n        /* \"#utility.yul\":7037:7041   */\n      0x20\n        /* \"#utility.yul\":7032:7035   */\n      dup3\n        /* \"#utility.yul\":7028:7042   */\n      add\n        /* \"#utility.yul\":7013:7042   */\n      swap1\n      pop\n        /* \"#utility.yul\":6864:7048   */\n      swap3\n      swap2\n      pop\n      pop\n      jump\t// out\n        /* \"#utility.yul\":7054:7186   */\n    tag_127:\n        /* \"#utility.yul\":7121:7125   */\n      0x00\n        /* \"#utility.yul\":7144:7147   */\n      dup2\n        /* \"#utility.yul\":7136:7147   */\n      swap1\n      pop\n        /* \"#utility.yul\":7174:7178   */\n      0x20\n        /* \"#utility.yul\":7169:7172   */\n      dup3\n        /* \"#utility.yul\":7165:7179   */\n      add\n        /* \"#utility.yul\":7157:7179   */\n      swap1\n      pop\n        /* \"#utility.yul\":7054:7186   */\n      swap2\n      swap1\n      pop\n      jump\t// out\n        /* \"#utility.yul\":7192:7269   */\n    tag_128:\n        /* \"#utility.yul\":7229:7236   */\n      0x00\n        /* \"#utility.yul\":7258:7263   */\n      dup2\n        /* \"#utility.yul\":7247:7263   */\n      swap1\n      pop\n        /* \"#utility.yul\":7192:7269   */\n      swap2\n      swap1\n      pop\n      jump\t// out\n        /* \"#utility.yul\":7275:7383   */\n    tag_129:\n        /* \"#utility.yul\":7352:7376   */\n      tag_255\n        /* \"#utility.yul\":7370:7375   */\n      dup2\n        /* \"#utility.yul\":7352:7376   */\n      tag_128\n      jump\t// in\n    tag_255:\n        /* \"#utility.yul\":7347:7350   */\n      dup3\n        /* \"#utility.yul\":7340:7377   */\n      mstore\n        /* \"#utility.yul\":7275:7383   */\n      pop\n      pop\n      jump\t// out\n        /* \"#utility.yul\":7389:7568   */\n    tag_130:\n        /* \"#utility.yul\":7458:7468   */\n      0x00\n        /* \"#utility.yul\":7479:7525   */\n      tag_257\n        /* \"#utility.yul\":7521:7524   */\n      dup4\n        /* \"#utility.yul\":7513:7519   */\n      dup4\n        /* \"#utility.yul\":7479:7525   */\n      tag_129\n      jump\t// in\n    tag_257:\n        /* \"#utility.yul\":7557:7561   */\n      0x20\n        /* \"#utility.yul\":7552:7555   */\n      dup4\n        /* \"#utility.yul\":7548:7562   */\n      add\n        /* \"#utility.yul\":7534:7562   */\n      swap1\n      pop\n        /* \"#utility.yul\":7389:7568   */\n      swap3\n      swap2\n      pop\n      pop\n      jump\t// out\n        /* \"#utility.yul\":7574:7687   */\n    tag_131:\n        /* \"#utility.yul\":7644:7648   */\n      0x00\n        /* \"#utility.yul\":7676:7680   */\n      0x20\n        /* \"#utility.yul\":7671:7674   */\n      dup3\n        /* \"#utility.yul\":7667:7681   */\n      add\n        /* \"#utility.yul\":7659:7681   */\n      swap1\n      pop\n        /* \"#utility.yul\":7574:7687   */\n      swap2\n      swap1\n      pop\n      jump\t// out\n        /* \"#utility.yul\":7723:8455   */\n    tag_132:\n        /* \"#utility.yul\":7842:7845   */\n      0x00\n        /* \"#utility.yul\":7871:7925   */\n      tag_260\n        /* \"#utility.yul\":7919:7924   */\n      dup3\n        /* \"#utility.yul\":7871:7925   */\n      tag_125\n      jump\t// in\n    tag_260:\n        /* \"#utility.yul\":7941:8027   */\n      tag_261\n        /* \"#utility.yul\":8020:8026   */\n      dup2\n        /* \"#utility.yul\":8015:8018   */\n      dup6\n        /* \"#utility.yul\":7941:8027   */\n      tag_126\n      jump\t// in\n    tag_261:\n        /* \"#utility.yul\":7934:8027   */\n      swap4\n      pop\n        /* \"#utility.yul\":8051:8107   */\n      tag_262\n        /* \"#utility.yul\":8101:8106   */\n      dup4\n        /* \"#utility.yul\":8051:8107   */\n      tag_127\n      jump\t// in\n    tag_262:\n        /* \"#utility.yul\":8130:8137   */\n      dup1\n        /* \"#utility.yul\":8161:8162   */\n      0x00\n        /* \"#utility.yul\":8146:8430   */\n    tag_263:\n        /* \"#utility.yul\":8171:8177   */\n      dup4\n        /* \"#utility.yul\":8168:8169   */\n      dup2\n        /* \"#utility.yul\":8165:8178   */\n      lt\n        /* \"#utility.yul\":8146:8430   */\n      iszero\n      tag_265\n      jumpi\n        /* \"#utility.yul\":8247:8253   */\n      dup2\n        /* \"#utility.yul\":8241:8254   */\n      mload\n        /* \"#utility.yul\":8274:8337   */\n      tag_266\n        /* \"#utility.yul\":8333:8336   */\n      dup9\n        /* \"#utility.yul\":8318:8331   */\n      dup3\n        /* \"#utility.yul\":8274:8337   */\n      tag_130\n      jump\t// in\n    tag_266:\n        /* \"#utility.yul\":8267:8337   */\n      swap8\n      pop\n        /* \"#utility.yul\":8360:8420   */\n      tag_267\n        /* \"#utility.yul\":8413:8419   */\n      dup4\n        /* \"#utility.yul\":8360:8420   */\n      tag_131\n      jump\t// in\n    tag_267:\n        /* \"#utility.yul\":8350:8420   */\n      swap3\n      pop\n        /* \"#utility.yul\":8206:8430   */\n      pop\n        /* \"#utility.yul\":8193:8194   */\n      0x01\n        /* \"#utility.yul\":8190:8191   */\n      dup2\n        /* \"#utility.yul\":8186:8195   */\n      add\n        /* \"#utility.yul\":8181:8195   */\n      swap1\n      pop\n        /* \"#utility.yul\":8146:8430   */\n      jump(tag_263)\n    tag_265:\n        /* \"#utility.yul\":8150:8164   */\n      pop\n        /* \"#utility.yul\":8446:8449   */\n      dup6\n        /* \"#utility.yul\":8439:8449   */\n      swap4\n      pop\n        /* \"#utility.yul\":7847:8455   */\n      pop\n      pop\n      pop\n        /* \"#utility.yul\":7723:8455   */\n      swap3\n      swap2\n      pop\n      pop\n      jump\t// out\n        /* \"#utility.yul\":8461:9670   */\n    tag_11:\n        /* \"#utility.yul\":8864:8868   */\n      0x00\n        /* \"#utility.yul\":8902:8905   */\n      0x80\n        /* \"#utility.yul\":8891:8900   */\n      dup3\n        /* \"#utility.yul\":8887:8906   */\n      add\n        /* \"#utility.yul\":8879:8906   */\n      swap1\n      pop\n        /* \"#utility.yul\":8952:8961   */\n      dup2\n        /* \"#utility.yul\":8946:8950   */\n      dup2\n        /* \"#utility.yul\":8942:8962   */\n      sub\n        /* \"#utility.yul\":8938:8939   */\n      0x00\n        /* \"#utility.yul\":8927:8936   */\n      dup4\n        /* \"#utility.yul\":8923:8940   */\n      add\n        /* \"#utility.yul\":8916:8963   */\n      mstore\n        /* \"#utility.yul\":8980:9088   */\n      tag_269\n        /* \"#utility.yul\":9083:9087   */\n      dup2\n        /* \"#utility.yul\":9074:9080   */\n      dup8\n        /* \"#utility.yul\":8980:9088   */\n      tag_103\n      jump\t// in\n    tag_269:\n        /* \"#utility.yul\":8972:9088   */\n      swap1\n      pop\n        /* \"#utility.yul\":9135:9144   */\n      dup2\n        /* \"#utility.yul\":9129:9133   */\n      dup2\n        /* \"#utility.yul\":9125:9145   */\n      sub\n        /* \"#utility.yul\":9120:9122   */\n      0x20\n        /* \"#utility.yul\":9109:9118   */\n      dup4\n        /* \"#utility.yul\":9105:9123   */\n      add\n        /* \"#utility.yul\":9098:9146   */\n      mstore\n        /* \"#utility.yul\":9163:9291   */\n      tag_270\n        /* \"#utility.yul\":9286:9290   */\n      dup2\n        /* \"#utility.yul\":9277:9283   */\n      dup7\n        /* \"#utility.yul\":9163:9291   */\n      tag_114\n      jump\t// in\n    tag_270:\n        /* \"#utility.yul\":9155:9291   */\n      swap1\n      pop\n        /* \"#utility.yul\":9338:9347   */\n      dup2\n        /* \"#utility.yul\":9332:9336   */\n      dup2\n        /* \"#utility.yul\":9328:9348   */\n      sub\n        /* \"#utility.yul\":9323:9325   */\n      0x40\n        /* \"#utility.yul\":9312:9321   */\n      dup4\n        /* \"#utility.yul\":9308:9326   */\n      add\n        /* \"#utility.yul\":9301:9349   */\n      mstore\n        /* \"#utility.yul\":9366:9480   */\n      tag_271\n        /* \"#utility.yul\":9475:9479   */\n      dup2\n        /* \"#utility.yul\":9466:9472   */\n      dup6\n        /* \"#utility.yul\":9366:9480   */\n      tag_124\n      jump\t// in\n    tag_271:\n        /* \"#utility.yul\":9358:9480   */\n      swap1\n      pop\n        /* \"#utility.yul\":9527:9536   */\n      dup2\n        /* \"#utility.yul\":9521:9525   */\n      dup2\n        /* \"#utility.yul\":9517:9537   */\n      sub\n        /* \"#utility.yul\":9512:9514   */\n      0x60\n        /* \"#utility.yul\":9501:9510   */\n      dup4\n        /* \"#utility.yul\":9497:9515   */\n      add\n        /* \"#utility.yul\":9490:9538   */\n      mstore\n        /* \"#utility.yul\":9555:9663   */\n      tag_272\n        /* \"#utility.yul\":9658:9662   */\n      dup2\n        /* \"#utility.yul\":9649:9655   */\n      dup5\n        /* \"#utility.yul\":9555:9663   */\n      tag_132\n      jump\t// in\n    tag_272:\n        /* \"#utility.yul\":9547:9663   */\n      swap1\n      pop\n        /* \"#utility.yul\":8461:9670   */\n      swap6\n      swap5\n      pop\n      pop\n      pop\n      pop\n      pop\n      jump\t// out\n        /* \"#utility.yul\":9676:9751   */\n    tag_133:\n        /* \"#utility.yul\":9709:9715   */\n      0x00\n        /* \"#utility.yul\":9742:9744   */\n      0x40\n        /* \"#utility.yul\":9736:9745   */\n      mload\n        /* \"#utility.yul\":9726:9745   */\n      swap1\n      pop\n        /* \"#utility.yul\":9676:9751   */\n      swap1\n      jump\t// out\n        /* \"#utility.yul\":9757:9874   */\n    tag_134:\n        /* \"#utility.yul\":9866:9867   */\n      0x00\n        /* \"#utility.yul\":9863:9864   */\n      0x00\n        /* \"#utility.yul\":9856:9868   */\n      revert\n        /* \"#utility.yul\":9880:9997   */\n    tag_135:\n        /* \"#utility.yul\":9989:9990   */\n      0x00\n        /* \"#utility.yul\":9986:9987   */\n      0x00\n        /* \"#utility.yul\":9979:9991   */\n      revert\n        /* \"#utility.yul\":10003:10120   */\n    tag_136:\n        /* \"#utility.yul\":10112:10113   */\n      0x00\n        /* \"#utility.yul\":10109:10110   */\n      0x00\n        /* \"#utility.yul\":10102:10114   */\n      revert\n        /* \"#utility.yul\":10126:10243   */\n    tag_137:\n        /* \"#utility.yul\":10235:10236   */\n      0x00\n        /* \"#utility.yul\":10232:10233   */\n      0x00\n        /* \"#utility.yul\":10225:10237   */\n      revert\n        /* \"#utility.yul\":10249:10429   */\n    tag_35:\n        /* \"#utility.yul\":10297:10374   */\n      0x4e487b7100000000000000000000000000000000000000000000000000000000\n        /* \"#utility.yul\":10294:10295   */\n      0x00\n        /* \"#utility.yul\":10287:10375   */\n      mstore\n        /* \"#utility.yul\":10394:10398   */\n      0x41\n        /* \"#utility.yul\":10391:10392   */\n      0x04\n        /* \"#utility.yul\":10384:10399   */\n      mstore\n        /* \"#utility.yul\":10418:10422   */\n      0x24\n        /* \"#utility.yul\":10415:10416   */\n      0x00\n        /* \"#utility.yul\":10408:10423   */\n      revert\n        /* \"#utility.yul\":10435:10716   */\n    tag_138:\n        /* \"#utility.yul\":10518:10545   */\n      tag_280\n        /* \"#utility.yul\":10540:10544   */\n      dup3\n        /* \"#utility.yul\":10518:10545   */\n      tag_110\n      jump\t// in\n    tag_280:\n        /* \"#utility.yul\":10510:10516   */\n      dup2\n        /* \"#utility.yul\":10506:10546   */\n      add\n        /* \"#utility.yul\":10648:10654   */\n      dup2\n        /* \"#utility.yul\":10636:10646   */\n      dup2\n        /* \"#utility.yul\":10633:10655   */\n      lt\n        /* \"#utility.yul\":10612:10630   */\n      0xffffffffffffffff\n        /* \"#utility.yul\":10600:10610   */\n      dup3\n        /* \"#utility.yul\":10597:10631   */\n      gt\n        /* \"#utility.yul\":10594:10656   */\n      or\n        /* \"#utility.yul\":10591:10679   */\n      iszero\n      tag_281\n      jumpi\n        /* \"#utility.yul\":10659:10677   */\n      tag_282\n      tag_35\n      jump\t// in\n    tag_282:\n        /* \"#utility.yul\":10591:10679   */\n    tag_281:\n        /* \"#utility.yul\":10699:10709   */\n      dup1\n        /* \"#utility.yul\":10695:10697   */\n      0x40\n        /* \"#utility.yul\":10688:10710   */\n      mstore\n        /* \"#utility.yul\":10478:10716   */\n      pop\n        /* \"#utility.yul\":10435:10716   */\n      pop\n      pop\n      jump\t// out\n        /* \"#utility.yul\":10722:10851   */\n    tag_139:\n        /* \"#utility.yul\":10756:10762   */\n      0x00\n        /* \"#utility.yul\":10783:10803   */\n      tag_284\n      tag_133\n      jump\t// in\n    tag_284:\n        /* \"#utility.yul\":10773:10803   */\n      swap1\n      pop\n        /* \"#utility.yul\":10812:10845   */\n      tag_285\n        /* \"#utility.yul\":10840:10844   */\n      dup3\n        /* \"#utility.yul\":10832:10838   */\n      dup3\n        /* \"#utility.yul\":10812:10845   */\n      tag_138\n      jump\t// in\n    tag_285:\n        /* \"#utility.yul\":10722:10851   */\n      swap2\n      swap1\n      pop\n      jump\t// out\n        /* \"#utility.yul\":10857:11165   */\n    tag_140:\n        /* \"#utility.yul\":10919:10923   */\n      0x00\n        /* \"#utility.yul\":11009:11027   */\n      0xffffffffffffffff\n        /* \"#utility.yul\":11001:11007   */\n      dup3\n        /* \"#utility.yul\":10998:11028   */\n      gt\n        /* \"#utility.yul\":10995:11051   */\n      iszero\n      tag_287\n      jumpi\n        /* \"#utility.yul\":11031:11049   */\n      tag_288\n      tag_35\n      jump\t// in\n    tag_288:\n        /* \"#utility.yul\":10995:11051   */\n    tag_287:\n        /* \"#utility.yul\":11069:11098   */\n      tag_289\n        /* \"#utility.yul\":11091:11097   */\n      dup3\n        /* \"#utility.yul\":11069:11098   */\n      tag_110\n      jump\t// in\n    tag_289:\n        /* \"#utility.yul\":11061:11098   */\n      swap1\n      pop\n        /* \"#utility.yul\":11153:11157   */\n      0x20\n        /* \"#utility.yul\":11147:11151   */\n      dup2\n        /* \"#utility.yul\":11143:11158   */\n      add\n        /* \"#utility.yul\":11135:11158   */\n      swap1\n      pop\n        /* \"#utility.yul\":10857:11165   */\n      swap2\n      swap1\n      pop\n      jump\t// out\n        /* \"#utility.yul\":11171:11319   */\n    tag_141:\n        /* \"#utility.yul\":11269:11275   */\n      dup3\n        /* \"#utility.yul\":11264:11267   */\n      dup2\n        /* \"#utility.yul\":11259:11262   */\n      dup4\n        /* \"#utility.yul\":11246:11276   */\n      calldatacopy\n        /* \"#utility.yul\":11310:11311   */\n      0x00\n        /* \"#utility.yul\":11301:11307   */\n      dup4\n        /* \"#utility.yul\":11296:11299   */\n      dup4\n        /* \"#utility.yul\":11292:11308   */\n      add\n        /* \"#utility.yul\":11285:11312   */\n      mstore\n        /* \"#utility.yul\":11171:11319   */\n      pop\n      pop\n      pop\n      jump\t// out\n        /* \"#utility.yul\":11325:11750   */\n    tag_142:\n        /* \"#utility.yul\":11403:11408   */\n      0x00\n        /* \"#utility.yul\":11428:11494   */\n      tag_292\n        /* \"#utility.yul\":11444:11493   */\n      tag_293\n        /* \"#utility.yul\":11486:11492   */\n      dup5\n        /* \"#utility.yul\":11444:11493   */\n      tag_140\n      jump\t// in\n    tag_293:\n        /* \"#utility.yul\":11428:11494   */\n      tag_139\n      jump\t// in\n    tag_292:\n        /* \"#utility.yul\":11419:11494   */\n      swap1\n      pop\n        /* \"#utility.yul\":11517:11523   */\n      dup3\n        /* \"#utility.yul\":11510:11515   */\n      dup2\n        /* \"#utility.yul\":11503:11524   */\n      mstore\n        /* \"#utility.yul\":11555:11559   */\n      0x20\n        /* \"#utility.yul\":11548:11553   */\n      dup2\n        /* \"#utility.yul\":11544:11560   */\n      add\n        /* \"#utility.yul\":11593:11596   */\n      dup5\n        /* \"#utility.yul\":11584:11590   */\n      dup5\n        /* \"#utility.yul\":11579:11582   */\n      dup5\n        /* \"#utility.yul\":11575:11591   */\n      add\n        /* \"#utility.yul\":11572:11597   */\n      gt\n        /* \"#utility.yul\":11569:11681   */\n      iszero\n      tag_294\n      jumpi\n        /* \"#utility.yul\":11600:11679   */\n      tag_295\n      tag_137\n      jump\t// in\n    tag_295:\n        /* \"#utility.yul\":11569:11681   */\n    tag_294:\n        /* \"#utility.yul\":11690:11744   */\n      tag_296\n        /* \"#utility.yul\":11737:11743   */\n      dup5\n        /* \"#utility.yul\":11732:11735   */\n      dup3\n        /* \"#utility.yul\":11727:11730   */\n      dup6\n        /* \"#utility.yul\":11690:11744   */\n      tag_141\n      jump\t// in\n    tag_296:\n        /* \"#utility.yul\":11409:11750   */\n      pop\n        /* \"#utility.yul\":11325:11750   */\n      swap4\n      swap3\n      pop\n      pop\n      pop\n      jump\t// out\n        /* \"#utility.yul\":11770:12110   */\n    tag_143:\n        /* \"#utility.yul\":11826:11831   */\n      0x00\n        /* \"#utility.yul\":11875:11878   */\n      dup3\n        /* \"#utility.yul\":11868:11872   */\n      0x1f\n        /* \"#utility.yul\":11860:11866   */\n      dup4\n        /* \"#utility.yul\":11856:11873   */\n      add\n        /* \"#utility.yul\":11852:11879   */\n      slt\n        /* \"#utility.yul\":11842:11964   */\n      tag_298\n      jumpi\n        /* \"#utility.yul\":11883:11962   */\n      tag_299\n      tag_136\n      jump\t// in\n    tag_299:\n        /* \"#utility.yul\":11842:11964   */\n    tag_298:\n        /* \"#utility.yul\":12000:12006   */\n      dup2\n        /* \"#utility.yul\":11987:12007   */\n      calldataload\n        /* \"#utility.yul\":12025:12104   */\n      tag_300\n        /* \"#utility.yul\":12100:12103   */\n      dup5\n        /* \"#utility.yul\":12092:12098   */\n      dup3\n        /* \"#utility.yul\":12085:12089   */\n      0x20\n        /* \"#utility.yul\":12077:12083   */\n      dup7\n        /* \"#utility.yul\":12073:12090   */\n      add\n        /* \"#utility.yul\":12025:12104   */\n      tag_142\n      jump\t// in\n    tag_300:\n        /* \"#utility.yul\":12016:12104   */\n      swap2\n      pop\n        /* \"#utility.yul\":11832:12110   */\n      pop\n        /* \"#utility.yul\":11770:12110   */\n      swap3\n      swap2\n      pop\n      pop\n      jump\t// out\n        /* \"#utility.yul\":12116:12223   */\n    tag_144:\n        /* \"#utility.yul\":12197:12198   */\n      0x02\n        /* \"#utility.yul\":12190:12195   */\n      dup2\n        /* \"#utility.yul\":12187:12199   */\n      lt\n        /* \"#utility.yul\":12177:12217   */\n      tag_302\n      jumpi\n        /* \"#utility.yul\":12213:12214   */\n      0x00\n        /* \"#utility.yul\":12210:12211   */\n      0x00\n        /* \"#utility.yul\":12203:12215   */\n      revert\n        /* \"#utility.yul\":12177:12217   */\n    tag_302:\n        /* \"#utility.yul\":12116:12223   */\n      pop\n      jump\t// out\n        /* \"#utility.yul\":12229:12384   */\n    tag_145:\n        /* \"#utility.yul\":12283:12288   */\n      0x00\n        /* \"#utility.yul\":12321:12327   */\n      dup2\n        /* \"#utility.yul\":12308:12328   */\n      calldataload\n        /* \"#utility.yul\":12299:12328   */\n      swap1\n      pop\n        /* \"#utility.yul\":12337:12378   */\n      tag_304\n        /* \"#utility.yul\":12372:12377   */\n      dup2\n        /* \"#utility.yul\":12337:12378   */\n      tag_144\n      jump\t// in\n    tag_304:\n        /* \"#utility.yul\":12229:12384   */\n      swap3\n      swap2\n      pop\n      pop\n      jump\t// out\n        /* \"#utility.yul\":12390:12512   */\n    tag_146:\n        /* \"#utility.yul\":12463:12487   */\n      tag_306\n        /* \"#utility.yul\":12481:12486   */\n      dup2\n        /* \"#utility.yul\":12463:12487   */\n      tag_128\n      jump\t// in\n    tag_306:\n        /* \"#utility.yul\":12456:12461   */\n      dup2\n        /* \"#utility.yul\":12453:12488   */\n      eq\n        /* \"#utility.yul\":12443:12506   */\n      tag_307\n      jumpi\n        /* \"#utility.yul\":12502:12503   */\n      0x00\n        /* \"#utility.yul\":12499:12500   */\n      0x00\n        /* \"#utility.yul\":12492:12504   */\n      revert\n        /* \"#utility.yul\":12443:12506   */\n    tag_307:\n        /* \"#utility.yul\":12390:12512   */\n      pop\n      jump\t// out\n        /* \"#utility.yul\":12518:12657   */\n    tag_147:\n        /* \"#utility.yul\":12564:12569   */\n      0x00\n        /* \"#utility.yul\":12602:12608   */\n      dup2\n        /* \"#utility.yul\":12589:12609   */\n      calldataload\n        /* \"#utility.yul\":12580:12609   */\n      swap1\n      pop\n        /* \"#utility.yul\":12618:12651   */\n      tag_309\n        /* \"#utility.yul\":12645:12650   */\n      dup2\n        /* \"#utility.yul\":12618:12651   */\n      tag_146\n      jump\t// in\n    tag_309:\n        /* \"#utility.yul\":12518:12657   */\n      swap3\n      swap2\n      pop\n      pop\n      jump\t// out\n        /* \"#utility.yul\":12663:13478   */\n    tag_14:\n        /* \"#utility.yul\":12758:12764   */\n      0x00\n        /* \"#utility.yul\":12766:12772   */\n      0x00\n        /* \"#utility.yul\":12774:12780   */\n      0x00\n        /* \"#utility.yul\":12823:12825   */\n      0x60\n        /* \"#utility.yul\":12811:12820   */\n      dup5\n        /* \"#utility.yul\":12802:12809   */\n      dup7\n        /* \"#utility.yul\":12798:12821   */\n      sub\n        /* \"#utility.yul\":12794:12826   */\n      slt\n        /* \"#utility.yul\":12791:12910   */\n      iszero\n      tag_311\n      jumpi\n        /* \"#utility.yul\":12829:12908   */\n      tag_312\n      tag_134\n      jump\t// in\n    tag_312:\n        /* \"#utility.yul\":12791:12910   */\n    tag_311:\n        /* \"#utility.yul\":12977:12978   */\n      0x00\n        /* \"#utility.yul\":12966:12975   */\n      dup5\n        /* \"#utility.yul\":12962:12979   */\n      add\n        /* \"#utility.yul\":12949:12980   */\n      calldataload\n        /* \"#utility.yul\":13007:13025   */\n      0xffffffffffffffff\n        /* \"#utility.yul\":12999:13005   */\n      dup2\n        /* \"#utility.yul\":12996:13026   */\n      gt\n        /* \"#utility.yul\":12993:13110   */\n      iszero\n      tag_313\n      jumpi\n        /* \"#utility.yul\":13029:13108   */\n      tag_314\n      tag_135\n      jump\t// in\n    tag_314:\n        /* \"#utility.yul\":12993:13110   */\n    tag_313:\n        /* \"#utility.yul\":13134:13197   */\n      tag_315\n        /* \"#utility.yul\":13189:13196   */\n      dup7\n        /* \"#utility.yul\":13180:13186   */\n      dup3\n        /* \"#utility.yul\":13169:13178   */\n      dup8\n        /* \"#utility.yul\":13165:13187   */\n      add\n        /* \"#utility.yul\":13134:13197   */\n      tag_143\n      jump\t// in\n    tag_315:\n        /* \"#utility.yul\":13124:13197   */\n      swap4\n      pop\n        /* \"#utility.yul\":12920:13207   */\n      pop\n        /* \"#utility.yul\":13246:13248   */\n      0x20\n        /* \"#utility.yul\":13272:13333   */\n      tag_316\n        /* \"#utility.yul\":13325:13332   */\n      dup7\n        /* \"#utility.yul\":13316:13322   */\n      dup3\n        /* \"#utility.yul\":13305:13314   */\n      dup8\n        /* \"#utility.yul\":13301:13323   */\n      add\n        /* \"#utility.yul\":13272:13333   */\n      tag_145\n      jump\t// in\n    tag_316:\n        /* \"#utility.yul\":13262:13333   */\n      swap3\n      pop\n        /* \"#utility.yul\":13217:13343   */\n      pop\n        /* \"#utility.yul\":13382:13384   */\n      0x40\n        /* \"#utility.yul\":13408:13461   */\n      tag_317\n        /* \"#utility.yul\":13453:13460   */\n      dup7\n        /* \"#utility.yul\":13444:13450   */\n      dup3\n        /* \"#utility.yul\":13433:13442   */\n      dup8\n        /* \"#utility.yul\":13429:13451   */\n      add\n        /* \"#utility.yul\":13408:13461   */\n      tag_147\n      jump\t// in\n    tag_317:\n        /* \"#utility.yul\":13398:13461   */\n      swap2\n      pop\n        /* \"#utility.yul\":13353:13471   */\n      pop\n        /* \"#utility.yul\":12663:13478   */\n      swap3\n      pop\n      swap3\n      pop\n      swap3\n      jump\t// out\n        /* \"#utility.yul\":13484:13602   */\n    tag_148:\n        /* \"#utility.yul\":13571:13595   */\n      tag_319\n        /* \"#utility.yul\":13589:13594   */\n      dup2\n        /* \"#utility.yul\":13571:13595   */\n      tag_99\n      jump\t// in\n    tag_319:\n        /* \"#utility.yul\":13566:13569   */\n      dup3\n        /* \"#utility.yul\":13559:13596   */\n      mstore\n        /* \"#utility.yul\":13484:13602   */\n      pop\n      pop\n      jump\t// out\n        /* \"#utility.yul\":13608:13830   */\n    tag_17:\n        /* \"#utility.yul\":13701:13705   */\n      0x00\n        /* \"#utility.yul\":13739:13741   */\n      0x20\n        /* \"#utility.yul\":13728:13737   */\n      dup3\n        /* \"#utility.yul\":13724:13742   */\n      add\n        /* \"#utility.yul\":13716:13742   */\n      swap1\n      pop\n        /* \"#utility.yul\":13752:13823   */\n      tag_321\n        /* \"#utility.yul\":13820:13821   */\n      0x00\n        /* \"#utility.yul\":13809:13818   */\n      dup4\n        /* \"#utility.yul\":13805:13822   */\n      add\n        /* \"#utility.yul\":13796:13802   */\n      dup5\n        /* \"#utility.yul\":13752:13823   */\n      tag_148\n      jump\t// in\n    tag_321:\n        /* \"#utility.yul\":13608:13830   */\n      swap3\n      swap2\n      pop\n      pop\n      jump\t// out\n        /* \"#utility.yul\":13836:13958   */\n    tag_149:\n        /* \"#utility.yul\":13909:13933   */\n      tag_323\n        /* \"#utility.yul\":13927:13932   */\n      dup2\n        /* \"#utility.yul\":13909:13933   */\n      tag_99\n      jump\t// in\n    tag_323:\n        /* \"#utility.yul\":13902:13907   */\n      dup2\n        /* \"#utility.yul\":13899:13934   */\n      eq\n        /* \"#utility.yul\":13889:13952   */\n      tag_324\n      jumpi\n        /* \"#utility.yul\":13948:13949   */\n      0x00\n        /* \"#utility.yul\":13945:13946   */\n      0x00\n        /* \"#utility.yul\":13938:13950   */\n      revert\n        /* \"#utility.yul\":13889:13952   */\n    tag_324:\n        /* \"#utility.yul\":13836:13958   */\n      pop\n      jump\t// out\n        /* \"#utility.yul\":13964:14103   */\n    tag_150:\n        /* \"#utility.yul\":14010:14015   */\n      0x00\n        /* \"#utility.yul\":14048:14054   */\n      dup2\n        /* \"#utility.yul\":14035:14055   */\n      calldataload\n        /* \"#utility.yul\":14026:14055   */\n      swap1\n      pop\n        /* \"#utility.yul\":14064:14097   */\n      tag_326\n        /* \"#utility.yul\":14091:14096   */\n      dup2\n        /* \"#utility.yul\":14064:14097   */\n      tag_149\n      jump\t// in\n    tag_326:\n        /* \"#utility.yul\":13964:14103   */\n      swap3\n      swap2\n      pop\n      pop\n      jump\t// out\n        /* \"#utility.yul\":14109:14438   */\n    tag_20:\n        /* \"#utility.yul\":14168:14174   */\n      0x00\n        /* \"#utility.yul\":14217:14219   */\n      0x20\n        /* \"#utility.yul\":14205:14214   */\n      dup3\n        /* \"#utility.yul\":14196:14203   */\n      dup5\n        /* \"#utility.yul\":14192:14215   */\n      sub\n        /* \"#utility.yul\":14188:14220   */\n      slt\n        /* \"#utility.yul\":14185:14304   */\n      iszero\n      tag_328\n      jumpi\n        /* \"#utility.yul\":14223:14302   */\n      tag_329\n      tag_134\n      jump\t// in\n    tag_329:\n        /* \"#utility.yul\":14185:14304   */\n    tag_328:\n        /* \"#utility.yul\":14343:14344   */\n      0x00\n        /* \"#utility.yul\":14368:14421   */\n      tag_330\n        /* \"#utility.yul\":14413:14420   */\n      dup5\n        /* \"#utility.yul\":14404:14410   */\n      dup3\n        /* \"#utility.yul\":14393:14402   */\n      dup6\n        /* \"#utility.yul\":14389:14411   */\n      add\n        /* \"#utility.yul\":14368:14421   */\n      tag_150\n      jump\t// in\n    tag_330:\n        /* \"#utility.yul\":14358:14421   */\n      swap2\n      pop\n        /* \"#utility.yul\":14314:14431   */\n      pop\n        /* \"#utility.yul\":14109:14438   */\n      swap3\n      swap2\n      pop\n      pop\n      jump\t// out\n        /* \"#utility.yul\":14444:14613   */\n    tag_151:\n        /* \"#utility.yul\":14528:14539   */\n      0x00\n        /* \"#utility.yul\":14562:14568   */\n      dup3\n        /* \"#utility.yul\":14557:14560   */\n      dup3\n        /* \"#utility.yul\":14550:14569   */\n      mstore\n        /* \"#utility.yul\":14602:14606   */\n      0x20\n        /* \"#utility.yul\":14597:14600   */\n      dup3\n        /* \"#utility.yul\":14593:14607   */\n      add\n        /* \"#utility.yul\":14578:14607   */\n      swap1\n      pop\n        /* \"#utility.yul\":14444:14613   */\n      swap3\n      swap2\n      pop\n      pop\n      jump\t// out\n        /* \"#utility.yul\":14619:14996   */\n    tag_152:\n        /* \"#utility.yul\":14707:14710   */\n      0x00\n        /* \"#utility.yul\":14735:14774   */\n      tag_333\n        /* \"#utility.yul\":14768:14773   */\n      dup3\n        /* \"#utility.yul\":14735:14774   */\n      tag_107\n      jump\t// in\n    tag_333:\n        /* \"#utility.yul\":14790:14861   */\n      tag_334\n        /* \"#utility.yul\":14854:14860   */\n      dup2\n        /* \"#utility.yul\":14849:14852   */\n      dup6\n        /* \"#utility.yul\":14790:14861   */\n      tag_151\n      jump\t// in\n    tag_334:\n        /* \"#utility.yul\":14783:14861   */\n      swap4\n      pop\n        /* \"#utility.yul\":14870:14935   */\n      tag_335\n        /* \"#utility.yul\":14928:14934   */\n      dup2\n        /* \"#utility.yul\":14923:14926   */\n      dup6\n        /* \"#utility.yul\":14916:14920   */\n      0x20\n        /* \"#utility.yul\":14909:14914   */\n      dup7\n        /* \"#utility.yul\":14905:14921   */\n      add\n        /* \"#utility.yul\":14870:14935   */\n      tag_109\n      jump\t// in\n    tag_335:\n        /* \"#utility.yul\":14960:14989   */\n      tag_336\n        /* \"#utility.yul\":14982:14988   */\n      dup2\n        /* \"#utility.yul\":14960:14989   */\n      tag_110\n      jump\t// in\n    tag_336:\n        /* \"#utility.yul\":14955:14958   */\n      dup5\n        /* \"#utility.yul\":14951:14990   */\n      add\n        /* \"#utility.yul\":14944:14990   */\n      swap2\n      pop\n        /* \"#utility.yul\":14711:14996   */\n      pop\n        /* \"#utility.yul\":14619:14996   */\n      swap3\n      swap2\n      pop\n      pop\n      jump\t// out\n        /* \"#utility.yul\":15002:15145   */\n    tag_153:\n        /* \"#utility.yul\":15095:15138   */\n      tag_338\n        /* \"#utility.yul\":15132:15137   */\n      dup2\n        /* \"#utility.yul\":15095:15138   */\n      tag_120\n      jump\t// in\n    tag_338:\n        /* \"#utility.yul\":15090:15093   */\n      dup3\n        /* \"#utility.yul\":15083:15139   */\n      mstore\n        /* \"#utility.yul\":15002:15145   */\n      pop\n      pop\n      jump\t// out\n        /* \"#utility.yul\":15151:15269   */\n    tag_154:\n        /* \"#utility.yul\":15238:15262   */\n      tag_340\n        /* \"#utility.yul\":15256:15261   */\n      dup2\n        /* \"#utility.yul\":15238:15262   */\n      tag_128\n      jump\t// in\n    tag_340:\n        /* \"#utility.yul\":15233:15236   */\n      dup3\n        /* \"#utility.yul\":15226:15263   */\n      mstore\n        /* \"#utility.yul\":15151:15269   */\n      pop\n      pop\n      jump\t// out\n        /* \"#utility.yul\":15275:15365   */\n    tag_155:\n        /* \"#utility.yul\":15309:15316   */\n      0x00\n        /* \"#utility.yul\":15352:15357   */\n      dup2\n        /* \"#utility.yul\":15345:15358   */\n      iszero\n        /* \"#utility.yul\":15338:15359   */\n      iszero\n        /* \"#utility.yul\":15327:15359   */\n      swap1\n      pop\n        /* \"#utility.yul\":15275:15365   */\n      swap2\n      swap1\n      pop\n      jump\t// out\n        /* \"#utility.yul\":15371:15480   */\n    tag_156:\n        /* \"#utility.yul\":15452:15473   */\n      tag_343\n        /* \"#utility.yul\":15467:15472   */\n      dup2\n        /* \"#utility.yul\":15452:15473   */\n      tag_155\n      jump\t// in\n    tag_343:\n        /* \"#utility.yul\":15447:15450   */\n      dup3\n        /* \"#utility.yul\":15440:15474   */\n      mstore\n        /* \"#utility.yul\":15371:15480   */\n      pop\n      pop\n      jump\t// out\n        /* \"#utility.yul\":15486:16130   */\n    tag_23:\n        /* \"#utility.yul\":15683:15687   */\n      0x00\n        /* \"#utility.yul\":15721:15724   */\n      0x80\n        /* \"#utility.yul\":15710:15719   */\n      dup3\n        /* \"#utility.yul\":15706:15725   */\n      add\n        /* \"#utility.yul\":15698:15725   */\n      swap1\n      pop\n        /* \"#utility.yul\":15771:15780   */\n      dup2\n        /* \"#utility.yul\":15765:15769   */\n      dup2\n        /* \"#utility.yul\":15761:15781   */\n      sub\n        /* \"#utility.yul\":15757:15758   */\n      0x00\n        /* \"#utility.yul\":15746:15755   */\n      dup4\n        /* \"#utility.yul\":15742:15759   */\n      add\n        /* \"#utility.yul\":15735:15782   */\n      mstore\n        /* \"#utility.yul\":15799:15877   */\n      tag_345\n        /* \"#utility.yul\":15872:15876   */\n      dup2\n        /* \"#utility.yul\":15863:15869   */\n      dup8\n        /* \"#utility.yul\":15799:15877   */\n      tag_152\n      jump\t// in\n    tag_345:\n        /* \"#utility.yul\":15791:15877   */\n      swap1\n      pop\n        /* \"#utility.yul\":15887:15965   */\n      tag_346\n        /* \"#utility.yul\":15961:15963   */\n      0x20\n        /* \"#utility.yul\":15950:15959   */\n      dup4\n        /* \"#utility.yul\":15946:15964   */\n      add\n        /* \"#utility.yul\":15937:15943   */\n      dup7\n        /* \"#utility.yul\":15887:15965   */\n      tag_153\n      jump\t// in\n    tag_346:\n        /* \"#utility.yul\":15975:16047   */\n      tag_347\n        /* \"#utility.yul\":16043:16045   */\n      0x40\n        /* \"#utility.yul\":16032:16041   */\n      dup4\n        /* \"#utility.yul\":16028:16046   */\n      add\n        /* \"#utility.yul\":16019:16025   */\n      dup6\n        /* \"#utility.yul\":15975:16047   */\n      tag_154\n      jump\t// in\n    tag_347:\n        /* \"#utility.yul\":16057:16123   */\n      tag_348\n        /* \"#utility.yul\":16119:16121   */\n      0x60\n        /* \"#utility.yul\":16108:16117   */\n      dup4\n        /* \"#utility.yul\":16104:16122   */\n      add\n        /* \"#utility.yul\":16095:16101   */\n      dup5\n        /* \"#utility.yul\":16057:16123   */\n      tag_156\n      jump\t// in\n    tag_348:\n        /* \"#utility.yul\":15486:16130   */\n      swap6\n      swap5\n      pop\n      pop\n      pop\n      pop\n      pop\n      jump\t// out\n        /* \"#utility.yul\":16136:16465   */\n    tag_29:\n        /* \"#utility.yul\":16195:16201   */\n      0x00\n        /* \"#utility.yul\":16244:16246   */\n      0x20\n        /* \"#utility.yul\":16232:16241   */\n      dup3\n        /* \"#utility.yul\":16223:16230   */\n      dup5\n        /* \"#utility.yul\":16219:16242   */\n      sub\n        /* \"#utility.yul\":16215:16247   */\n      slt\n        /* \"#utility.yul\":16212:16331   */\n      iszero\n      tag_350\n      jumpi\n        /* \"#utility.yul\":16250:16329   */\n      tag_351\n      tag_134\n      jump\t// in\n    tag_351:\n        /* \"#utility.yul\":16212:16331   */\n    tag_350:\n        /* \"#utility.yul\":16370:16371   */\n      0x00\n        /* \"#utility.yul\":16395:16448   */\n      tag_352\n        /* \"#utility.yul\":16440:16447   */\n      dup5\n        /* \"#utility.yul\":16431:16437   */\n      dup3\n        /* \"#utility.yul\":16420:16429   */\n      dup6\n        /* \"#utility.yul\":16416:16438   */\n      add\n        /* \"#utility.yul\":16395:16448   */\n      tag_147\n      jump\t// in\n    tag_352:\n        /* \"#utility.yul\":16385:16448   */\n      swap2\n      pop\n        /* \"#utility.yul\":16341:16458   */\n      pop\n        /* \"#utility.yul\":16136:16465   */\n      swap3\n      swap2\n      pop\n      pop\n      jump\t// out\n        /* \"#utility.yul\":16471:16651   */\n    tag_49:\n        /* \"#utility.yul\":16519:16596   */\n      0x4e487b7100000000000000000000000000000000000000000000000000000000\n        /* \"#utility.yul\":16516:16517   */\n      0x00\n        /* \"#utility.yul\":16509:16597   */\n      mstore\n        /* \"#utility.yul\":16616:16620   */\n      0x32\n        /* \"#utility.yul\":16613:16614   */\n      0x04\n        /* \"#utility.yul\":16606:16621   */\n      mstore\n        /* \"#utility.yul\":16640:16644   */\n      0x24\n        /* \"#utility.yul\":16637:16638   */\n      0x00\n        /* \"#utility.yul\":16630:16645   */\n      revert\n        /* \"#utility.yul\":16657:16837   */\n    tag_157:\n        /* \"#utility.yul\":16705:16782   */\n      0x4e487b7100000000000000000000000000000000000000000000000000000000\n        /* \"#utility.yul\":16702:16703   */\n      0x00\n        /* \"#utility.yul\":16695:16783   */\n      mstore\n        /* \"#utility.yul\":16802:16806   */\n      0x22\n        /* \"#utility.yul\":16799:16800   */\n      0x04\n        /* \"#utility.yul\":16792:16807   */\n      mstore\n        /* \"#utility.yul\":16826:16830   */\n      0x24\n        /* \"#utility.yul\":16823:16824   */\n      0x00\n        /* \"#utility.yul\":16816:16831   */\n      revert\n        /* \"#utility.yul\":16843:17163   */\n    tag_52:\n        /* \"#utility.yul\":16887:16893   */\n      0x00\n        /* \"#utility.yul\":16924:16925   */\n      0x02\n        /* \"#utility.yul\":16918:16922   */\n      dup3\n        /* \"#utility.yul\":16914:16926   */\n      div\n        /* \"#utility.yul\":16904:16926   */\n      swap1\n      pop\n        /* \"#utility.yul\":16971:16972   */\n      0x01\n        /* \"#utility.yul\":16965:16969   */\n      dup3\n        /* \"#utility.yul\":16961:16973   */\n      and\n        /* \"#utility.yul\":16992:17010   */\n      dup1\n        /* \"#utility.yul\":16982:17063   */\n      tag_356\n      jumpi\n        /* \"#utility.yul\":17048:17052   */\n      0x7f\n        /* \"#utility.yul\":17040:17046   */\n      dup3\n        /* \"#utility.yul\":17036:17053   */\n      and\n        /* \"#utility.yul\":17026:17053   */\n      swap2\n      pop\n        /* \"#utility.yul\":16982:17063   */\n    tag_356:\n        /* \"#utility.yul\":17110:17112   */\n      0x20\n        /* \"#utility.yul\":17102:17108   */\n      dup3\n        /* \"#utility.yul\":17099:17113   */\n      lt\n        /* \"#utility.yul\":17079:17097   */\n      dup2\n        /* \"#utility.yul\":17076:17114   */\n      sub\n        /* \"#utility.yul\":17073:17157   */\n      tag_357\n      jumpi\n        /* \"#utility.yul\":17129:17147   */\n      tag_358\n      tag_157\n      jump\t// in\n    tag_358:\n        /* \"#utility.yul\":17073:17157   */\n    tag_357:\n        /* \"#utility.yul\":16894:17163   */\n      pop\n        /* \"#utility.yul\":16843:17163   */\n      swap2\n      swap1\n      pop\n      jump\t// out\n        /* \"#utility.yul\":17169:17317   */\n    tag_158:\n        /* \"#utility.yul\":17271:17282   */\n      0x00\n        /* \"#utility.yul\":17308:17311   */\n      dup2\n        /* \"#utility.yul\":17293:17311   */\n      swap1\n      pop\n        /* \"#utility.yul\":17169:17317   */\n      swap3\n      swap2\n      pop\n      pop\n      jump\t// out\n        /* \"#utility.yul\":17323:17713   */\n    tag_159:\n        /* \"#utility.yul\":17429:17432   */\n      0x00\n        /* \"#utility.yul\":17457:17496   */\n      tag_361\n        /* \"#utility.yul\":17490:17495   */\n      dup3\n        /* \"#utility.yul\":17457:17496   */\n      tag_107\n      jump\t// in\n    tag_361:\n        /* \"#utility.yul\":17512:17601   */\n      tag_362\n        /* \"#utility.yul\":17594:17600   */\n      dup2\n        /* \"#utility.yul\":17589:17592   */\n      dup6\n        /* \"#utility.yul\":17512:17601   */\n      tag_158\n      jump\t// in\n    tag_362:\n        /* \"#utility.yul\":17505:17601   */\n      swap4\n      pop\n        /* \"#utility.yul\":17610:17675   */\n      tag_363\n        /* \"#utility.yul\":17668:17674   */\n      dup2\n        /* \"#utility.yul\":17663:17666   */\n      dup6\n        /* \"#utility.yul\":17656:17660   */\n      0x20\n        /* \"#utility.yul\":17649:17654   */\n      dup7\n        /* \"#utility.yul\":17645:17661   */\n      add\n        /* \"#utility.yul\":17610:17675   */\n      tag_109\n      jump\t// in\n    tag_363:\n        /* \"#utility.yul\":17700:17706   */\n      dup1\n        /* \"#utility.yul\":17695:17698   */\n      dup5\n        /* \"#utility.yul\":17691:17707   */\n      add\n        /* \"#utility.yul\":17684:17707   */\n      swap2\n      pop\n        /* \"#utility.yul\":17433:17713   */\n      pop\n        /* \"#utility.yul\":17323:17713   */\n      swap3\n      swap2\n      pop\n      pop\n      jump\t// out\n        /* \"#utility.yul\":17719:17815   */\n    tag_160:\n        /* \"#utility.yul\":17753:17761   */\n      0x00\n        /* \"#utility.yul\":17802:17807   */\n      dup2\n        /* \"#utility.yul\":17797:17800   */\n      0xf8\n        /* \"#utility.yul\":17793:17808   */\n      shl\n        /* \"#utility.yul\":17772:17808   */\n      swap1\n      pop\n        /* \"#utility.yul\":17719:17815   */\n      swap2\n      swap1\n      pop\n      jump\t// out\n        /* \"#utility.yul\":17821:17914   */\n    tag_161:\n        /* \"#utility.yul\":17858:17865   */\n      0x00\n        /* \"#utility.yul\":17887:17908   */\n      tag_366\n        /* \"#utility.yul\":17902:17907   */\n      dup3\n        /* \"#utility.yul\":17887:17908   */\n      tag_160\n      jump\t// in\n    tag_366:\n        /* \"#utility.yul\":17876:17908   */\n      swap1\n      pop\n        /* \"#utility.yul\":17821:17914   */\n      swap2\n      swap1\n      pop\n      jump\t// out\n        /* \"#utility.yul\":17920:18100   */\n    tag_162:\n        /* \"#utility.yul\":18031:18093   */\n      tag_368\n        /* \"#utility.yul\":18049:18092   */\n      tag_369\n        /* \"#utility.yul\":18086:18091   */\n      dup3\n        /* \"#utility.yul\":18049:18092   */\n      tag_120\n      jump\t// in\n    tag_369:\n        /* \"#utility.yul\":18031:18093   */\n      tag_161\n      jump\t// in\n    tag_368:\n        /* \"#utility.yul\":18026:18029   */\n      dup3\n        /* \"#utility.yul\":18019:18094   */\n      mstore\n        /* \"#utility.yul\":17920:18100   */\n      pop\n      pop\n      jump\t// out\n        /* \"#utility.yul\":18106:18185   */\n    tag_163:\n        /* \"#utility.yul\":18145:18152   */\n      0x00\n        /* \"#utility.yul\":18174:18179   */\n      dup2\n        /* \"#utility.yul\":18163:18179   */\n      swap1\n      pop\n        /* \"#utility.yul\":18106:18185   */\n      swap2\n      swap1\n      pop\n      jump\t// out\n        /* \"#utility.yul\":18191:18348   */\n    tag_164:\n        /* \"#utility.yul\":18296:18341   */\n      tag_372\n        /* \"#utility.yul\":18316:18340   */\n      tag_373\n        /* \"#utility.yul\":18334:18339   */\n      dup3\n        /* \"#utility.yul\":18316:18340   */\n      tag_128\n      jump\t// in\n    tag_373:\n        /* \"#utility.yul\":18296:18341   */\n      tag_163\n      jump\t// in\n    tag_372:\n        /* \"#utility.yul\":18291:18294   */\n      dup3\n        /* \"#utility.yul\":18284:18342   */\n      mstore\n        /* \"#utility.yul\":18191:18348   */\n      pop\n      pop\n      jump\t// out\n        /* \"#utility.yul\":18354:18922   */\n    tag_76:\n        /* \"#utility.yul\":18548:18551   */\n      0x00\n        /* \"#utility.yul\":18570:18665   */\n      tag_375\n        /* \"#utility.yul\":18661:18664   */\n      dup3\n        /* \"#utility.yul\":18652:18658   */\n      dup7\n        /* \"#utility.yul\":18570:18665   */\n      tag_159\n      jump\t// in\n    tag_375:\n        /* \"#utility.yul\":18563:18665   */\n      swap2\n      pop\n        /* \"#utility.yul\":18675:18756   */\n      tag_376\n        /* \"#utility.yul\":18752:18755   */\n      dup3\n        /* \"#utility.yul\":18743:18749   */\n      dup6\n        /* \"#utility.yul\":18675:18756   */\n      tag_162\n      jump\t// in\n    tag_376:\n        /* \"#utility.yul\":18781:18782   */\n      0x01\n        /* \"#utility.yul\":18776:18779   */\n      dup3\n        /* \"#utility.yul\":18772:18783   */\n      add\n        /* \"#utility.yul\":18765:18783   */\n      swap2\n      pop\n        /* \"#utility.yul\":18793:18868   */\n      tag_377\n        /* \"#utility.yul\":18864:18867   */\n      dup3\n        /* \"#utility.yul\":18855:18861   */\n      dup5\n        /* \"#utility.yul\":18793:18868   */\n      tag_164\n      jump\t// in\n    tag_377:\n        /* \"#utility.yul\":18893:18895   */\n      0x20\n        /* \"#utility.yul\":18888:18891   */\n      dup3\n        /* \"#utility.yul\":18884:18896   */\n      add\n        /* \"#utility.yul\":18877:18896   */\n      swap2\n      pop\n        /* \"#utility.yul\":18913:18916   */\n      dup2\n        /* \"#utility.yul\":18906:18916   */\n      swap1\n      pop\n        /* \"#utility.yul\":18354:18922   */\n      swap5\n      swap4\n      pop\n      pop\n      pop\n      pop\n      jump\t// out\n        /* \"#utility.yul\":18928:19099   */\n    tag_165:\n        /* \"#utility.yul\":19068:19091   */\n      0x436f7572736520616c7265616479206578697374730000000000000000000000\n        /* \"#utility.yul\":19064:19065   */\n      0x00\n        /* \"#utility.yul\":19056:19062   */\n      dup3\n        /* \"#utility.yul\":19052:19066   */\n      add\n        /* \"#utility.yul\":19045:19092   */\n      mstore\n        /* \"#utility.yul\":18928:19099   */\n      pop\n      jump\t// out\n        /* \"#utility.yul\":19105:19471   */\n    tag_166:\n        /* \"#utility.yul\":19247:19250   */\n      0x00\n        /* \"#utility.yul\":19268:19335   */\n      tag_380\n        /* \"#utility.yul\":19332:19334   */\n      0x15\n        /* \"#utility.yul\":19327:19330   */\n      dup4\n        /* \"#utility.yul\":19268:19335   */\n      tag_151\n      jump\t// in\n    tag_380:\n        /* \"#utility.yul\":19261:19335   */\n      swap2\n      pop\n        /* \"#utility.yul\":19344:19437   */\n      tag_381\n        /* \"#utility.yul\":19433:19436   */\n      dup3\n        /* \"#utility.yul\":19344:19437   */\n      tag_165\n      jump\t// in\n    tag_381:\n        /* \"#utility.yul\":19462:19464   */\n      0x20\n        /* \"#utility.yul\":19457:19460   */\n      dup3\n        /* \"#utility.yul\":19453:19465   */\n      add\n        /* \"#utility.yul\":19446:19465   */\n      swap1\n      pop\n        /* \"#utility.yul\":19105:19471   */\n      swap2\n      swap1\n      pop\n      jump\t// out\n        /* \"#utility.yul\":19477:19896   */\n    tag_86:\n        /* \"#utility.yul\":19643:19647   */\n      0x00\n        /* \"#utility.yul\":19681:19683   */\n      0x20\n        /* \"#utility.yul\":19670:19679   */\n      dup3\n        /* \"#utility.yul\":19666:19684   */\n      add\n        /* \"#utility.yul\":19658:19684   */\n      swap1\n      pop\n        /* \"#utility.yul\":19730:19739   */\n      dup2\n        /* \"#utility.yul\":19724:19728   */\n      dup2\n        /* \"#utility.yul\":19720:19740   */\n      sub\n        /* \"#utility.yul\":19716:19717   */\n      0x00\n        /* \"#utility.yul\":19705:19714   */\n      dup4\n        /* \"#utility.yul\":19701:19718   */\n      add\n        /* \"#utility.yul\":19694:19741   */\n      mstore\n        /* \"#utility.yul\":19758:19889   */\n      tag_383\n        /* \"#utility.yul\":19884:19888   */\n      dup2\n        /* \"#utility.yul\":19758:19889   */\n      tag_166\n      jump\t// in\n    tag_383:\n        /* \"#utility.yul\":19750:19889   */\n      swap1\n      pop\n        /* \"#utility.yul\":19477:19896   */\n      swap2\n      swap1\n      pop\n      jump\t// out\n        /* \"#utility.yul\":19902:20043   */\n    tag_167:\n        /* \"#utility.yul\":19951:19955   */\n      0x00\n        /* \"#utility.yul\":19974:19977   */\n      dup2\n        /* \"#utility.yul\":19966:19977   */\n      swap1\n      pop\n        /* \"#utility.yul\":19997:20000   */\n      dup2\n        /* \"#utility.yul\":19994:19995   */\n      0x00\n        /* \"#utility.yul\":19987:20001   */\n      mstore\n        /* \"#utility.yul\":20031:20035   */\n      0x20\n        /* \"#utility.yul\":20028:20029   */\n      0x00\n        /* \"#utility.yul\":20018:20036   */\n      keccak256\n        /* \"#utility.yul\":20010:20036   */\n      swap1\n      pop\n        /* \"#utility.yul\":19902:20043   */\n      swap2\n      swap1\n      pop\n      jump\t// out\n        /* \"#utility.yul\":20049:20142   */\n    tag_168:\n        /* \"#utility.yul\":20086:20092   */\n      0x00\n        /* \"#utility.yul\":20133:20135   */\n      0x20\n        /* \"#utility.yul\":20128:20130   */\n      0x1f\n        /* \"#utility.yul\":20121:20126   */\n      dup4\n        /* \"#utility.yul\":20117:20131   */\n      add\n        /* \"#utility.yul\":20113:20136   */\n      div\n        /* \"#utility.yul\":20103:20136   */\n      swap1\n      pop\n        /* \"#utility.yul\":20049:20142   */\n      swap2\n      swap1\n      pop\n      jump\t// out\n        /* \"#utility.yul\":20148:20255   */\n    tag_169:\n        /* \"#utility.yul\":20192:20200   */\n      0x00\n        /* \"#utility.yul\":20242:20247   */\n      dup3\n        /* \"#utility.yul\":20236:20240   */\n      dup3\n        /* \"#utility.yul\":20232:20248   */\n      shl\n        /* \"#utility.yul\":20211:20248   */\n      swap1\n      pop\n        /* \"#utility.yul\":20148:20255   */\n      swap3\n      swap2\n      pop\n      pop\n      jump\t// out\n        /* \"#utility.yul\":20261:20654   */\n    tag_170:\n        /* \"#utility.yul\":20330:20336   */\n      0x00\n        /* \"#utility.yul\":20380:20381   */\n      0x08\n        /* \"#utility.yul\":20368:20378   */\n      dup4\n        /* \"#utility.yul\":20364:20382   */\n      mul\n        /* \"#utility.yul\":20403:20500   */\n      tag_388\n        /* \"#utility.yul\":20433:20499   */\n      0xffffffffffffffffffffffffffffffffffffffffffffffffffffffffffffffff\n        /* \"#utility.yul\":20422:20431   */\n      dup3\n        /* \"#utility.yul\":20403:20500   */\n      tag_169\n      jump\t// in\n    tag_388:\n        /* \"#utility.yul\":20521:20560   */\n      tag_389\n        /* \"#utility.yul\":20551:20559   */\n      dup7\n        /* \"#utility.yul\":20540:20549   */\n      dup4\n        /* \"#utility.yul\":20521:20560   */\n      tag_169\n      jump\t// in\n    tag_389:\n        /* \"#utility.yul\":20509:20560   */\n      swap6\n      pop\n        /* \"#utility.yul\":20593:20597   */\n      dup1\n        /* \"#utility.yul\":20589:20598   */\n      not\n        /* \"#utility.yul\":20582:20587   */\n      dup5\n        /* \"#utility.yul\":20578:20599   */\n      and\n        /* \"#utility.yul\":20569:20599   */\n      swap4\n      pop\n        /* \"#utility.yul\":20642:20646   */\n      dup1\n        /* \"#utility.yul\":20632:20640   */\n      dup7\n        /* \"#utility.yul\":20628:20647   */\n      and\n        /* \"#utility.yul\":20621:20626   */\n      dup5\n        /* \"#utility.yul\":20618:20648   */\n      or\n        /* \"#utility.yul\":20608:20648   */\n      swap3\n      pop\n        /* \"#utility.yul\":20337:20654   */\n      pop\n      pop\n        /* \"#utility.yul\":20261:20654   */\n      swap4\n      swap3\n      pop\n      pop\n      pop\n      jump\t// out\n        /* \"#utility.yul\":20660:20720   */\n    tag_171:\n        /* \"#utility.yul\":20688:20691   */\n      0x00\n        /* \"#utility.yul\":20709:20714   */\n      dup2\n        /* \"#utility.yul\":20702:20714   */\n      swap1\n      pop\n        /* \"#utility.yul\":20660:20720   */\n      swap2\n      swap1\n      pop\n      jump\t// out\n        /* \"#utility.yul\":20726:20868   */\n    tag_172:\n        /* \"#utility.yul\":20776:20785   */\n      0x00\n        /* \"#utility.yul\":20809:20862   */\n      tag_392\n        /* \"#utility.yul\":20827:20861   */\n      tag_393\n        /* \"#utility.yul\":20836:20860   */\n      tag_394\n        /* \"#utility.yul\":20854:20859   */\n      dup5\n        /* \"#utility.yul\":20836:20860   */\n      tag_128\n      jump\t// in\n    tag_394:\n        /* \"#utility.yul\":20827:20861   */\n      tag_171\n      jump\t// in\n    tag_393:\n        /* \"#utility.yul\":20809:20862   */\n      tag_128\n      jump\t// in\n    tag_392:\n        /* \"#utility.yul\":20796:20862   */\n      swap1\n      pop\n        /* \"#utility.yul\":20726:20868   */\n      swap2\n      swap1\n      pop\n      jump\t// out\n        /* \"#utility.yul\":20874:20949   */\n    tag_173:\n        /* \"#utility.yul\":20917:20920   */\n      0x00\n        /* \"#utility.yul\":20938:20943   */\n      dup2\n        /* \"#utility.yul\":20931:20943   */\n      swap1\n      pop\n        /* \"#utility.yul\":20874:20949   */\n      swap2\n      swap1\n      pop\n      jump\t// out\n        /* \"#utility.yul\":20955:21224   */\n    tag_174:\n        /* \"#utility.yul\":21065:21104   */\n      tag_397\n        /* \"#utility.yul\":21096:21103   */\n      dup4\n        /* \"#utility.yul\":21065:21104   */\n      tag_172\n      jump\t// in\n    tag_397:\n        /* \"#utility.yul\":21126:21217   */\n      tag_398\n        /* \"#utility.yul\":21175:21216   */\n      tag_399\n        /* \"#utility.yul\":21199:21215   */\n      dup3\n        /* \"#utility.yul\":21175:21216   */\n      tag_173\n      jump\t// in\n    tag_399:\n        /* \"#utility.yul\":21167:21173   */\n      dup5\n        /* \"#utility.yul\":21160:21164   */\n      dup5\n        /* \"#utility.yul\":21154:21165   */\n      sload\n        /* \"#utility.yul\":21126:21217   */\n      tag_170\n      jump\t// in\n    tag_398:\n        /* \"#utility.yul\":21120:21124   */\n      dup3\n        /* \"#utility.yul\":21113:21218   */\n      sstore\n        /* \"#utility.yul\":21031:21224   */\n      pop\n        /* \"#utility.yul\":20955:21224   */\n      pop\n      pop\n      pop\n      jump\t// out\n        /* \"#utility.yul\":21230:21303   */\n    tag_175:\n        /* \"#utility.yul\":21275:21278   */\n      0x00\n        /* \"#utility.yul\":21296:21297   */\n      0x00\n        /* \"#utility.yul\":21289:21297   */\n      swap1\n      pop\n        /* \"#utility.yul\":21230:21303   */\n      swap1\n      jump\t// out\n        /* \"#utility.yul\":21309:21498   */\n    tag_176:\n        /* \"#utility.yul\":21386:21418   */\n      tag_402\n      tag_175\n      jump\t// in\n    tag_402:\n        /* \"#utility.yul\":21427:21492   */\n      tag_403\n        /* \"#utility.yul\":21485:21491   */\n      dup2\n        /* \"#utility.yul\":21477:21483   */\n      dup5\n        /* \"#utility.yul\":21471:21475   */\n      dup5\n        /* \"#utility.yul\":21427:21492   */\n      tag_174\n      jump\t// in\n    tag_403:\n        /* \"#utility.yul\":21362:21498   */\n      pop\n        /* \"#utility.yul\":21309:21498   */\n      pop\n      pop\n      jump\t// out\n        /* \"#utility.yul\":21504:21690   */\n    tag_177:\n        /* \"#utility.yul\":21564:21684   */\n    tag_405:\n        /* \"#utility.yul\":21581:21584   */\n      dup2\n        /* \"#utility.yul\":21574:21579   */\n      dup2\n        /* \"#utility.yul\":21571:21585   */\n      lt\n        /* \"#utility.yul\":21564:21684   */\n      iszero\n      tag_407\n      jumpi\n        /* \"#utility.yul\":21635:21674   */\n      tag_408\n        /* \"#utility.yul\":21672:21673   */\n      0x00\n        /* \"#utility.yul\":21665:21670   */\n      dup3\n        /* \"#utility.yul\":21635:21674   */\n      tag_176\n      jump\t// in\n    tag_408:\n        /* \"#utility.yul\":21608:21609   */\n      0x01\n        /* \"#utility.yul\":21601:21606   */\n      dup2\n        /* \"#utility.yul\":21597:21610   */\n      add\n        /* \"#utility.yul\":21588:21610   */\n      swap1\n      pop\n        /* \"#utility.yul\":21564:21684   */\n      jump(tag_405)\n    tag_407:\n        /* \"#utility.yul\":21504:21690   */\n      pop\n      pop\n      jump\t// out\n        /* \"#utility.yul\":21696:22239   */\n    tag_178:\n        /* \"#utility.yul\":21797:21799   */\n      0x1f\n        /* \"#utility.yul\":21792:21795   */\n      dup3\n        /* \"#utility.yul\":21789:21800   */\n      gt\n        /* \"#utility.yul\":21786:22232   */\n      iszero\n      tag_410\n      jumpi\n        /* \"#utility.yul\":21831:21869   */\n      tag_411\n        /* \"#utility.yul\":21863:21868   */\n      dup2\n        /* \"#utility.yul\":21831:21869   */\n      tag_167\n      jump\t// in\n    tag_411:\n        /* \"#utility.yul\":21915:21944   */\n      tag_412\n        /* \"#utility.yul\":21933:21943   */\n      dup5\n        /* \"#utility.yul\":21915:21944   */\n      tag_168\n      jump\t// in\n    tag_412:\n        /* \"#utility.yul\":21905:21913   */\n      dup2\n        /* \"#utility.yul\":21901:21945   */\n      add\n        /* \"#utility.yul\":22098:22100   */\n      0x20\n        /* \"#utility.yul\":22086:22096   */\n      dup6\n        /* \"#utility.yul\":22083:22101   */\n      lt\n        /* \"#utility.yul\":22080:22129   */\n      iszero\n      tag_413\n      jumpi\n        /* \"#utility.yul\":22119:22127   */\n      dup2\n        /* \"#utility.yul\":22104:22127   */\n      swap1\n      pop\n        /* \"#utility.yul\":22080:22129   */\n    tag_413:\n        /* \"#utility.yul\":22142:22222   */\n      tag_414\n        /* \"#utility.yul\":22198:22220   */\n      tag_415\n        /* \"#utility.yul\":22216:22219   */\n      dup6\n        /* \"#utility.yul\":22198:22220   */\n      tag_168\n      jump\t// in\n    tag_415:\n        /* \"#utility.yul\":22188:22196   */\n      dup4\n        /* \"#utility.yul\":22184:22221   */\n      add\n        /* \"#utility.yul\":22171:22182   */\n      dup3\n        /* \"#utility.yul\":22142:22222   */\n      tag_177\n      jump\t// in\n    tag_414:\n        /* \"#utility.yul\":21801:22232   */\n      pop\n      pop\n        /* \"#utility.yul\":21786:22232   */\n    tag_410:\n        /* \"#utility.yul\":21696:22239   */\n      pop\n      pop\n      pop\n      jump\t// out\n        /* \"#utility.yul\":22245:22362   */\n    tag_179:\n        /* \"#utility.yul\":22299:22307   */\n      0x00\n        /* \"#utility.yul\":22349:22354   */\n      dup3\n        /* \"#utility.yul\":22343:22347   */\n      dup3\n        /* \"#utility.yul\":22339:22355   */\n      shr\n        /* \"#utility.yul\":22318:22355   */\n      swap1\n      pop\n        /* \"#utility.yul\":22245:22362   */\n      swap3\n      swap2\n      pop\n      pop\n      jump\t// out\n        /* \"#utility.yul\":22368:22537   */\n    tag_180:\n        /* \"#utility.yul\":22412:22418   */\n      0x00\n        /* \"#utility.yul\":22445:22496   */\n      tag_418\n        /* \"#utility.yul\":22493:22494   */\n      0x00\n        /* \"#utility.yul\":22489:22495   */\n      not\n        /* \"#utility.yul\":22481:22486   */\n      dup5\n        /* \"#utility.yul\":22478:22479   */\n      0x08\n        /* \"#utility.yul\":22474:22487   */\n      mul\n        /* \"#utility.yul\":22445:22496   */\n      tag_179\n      jump\t// in\n    tag_418:\n        /* \"#utility.yul\":22441:22497   */\n      not\n        /* \"#utility.yul\":22526:22530   */\n      dup1\n        /* \"#utility.yul\":22520:22524   */\n      dup4\n        /* \"#utility.yul\":22516:22531   */\n      and\n        /* \"#utility.yul\":22506:22531   */\n      swap2\n      pop\n        /* \"#utility.yul\":22419:22537   */\n      pop\n        /* \"#utility.yul\":22368:22537   */\n      swap3\n      swap2\n      pop\n      pop\n      jump\t// out\n        /* \"#utility.yul\":22542:22837   */\n    tag_181:\n        /* \"#utility.yul\":22618:22622   */\n      0x00\n        /* \"#utility.yul\":22764:22793   */\n      tag_420\n        /* \"#utility.yul\":22789:22792   */\n      dup4\n        /* \"#utility.yul\":22783:22787   */\n      dup4\n        /* \"#utility.yul\":22764:22793   */\n      tag_180\n      jump\t// in\n    tag_420:\n        /* \"#utility.yul\":22756:22793   */\n      swap2\n      pop\n        /* \"#utility.yul\":22826:22829   */\n      dup3\n        /* \"#utility.yul\":22823:22824   */\n      0x02\n        /* \"#utility.yul\":22819:22830   */\n      mul\n        /* \"#utility.yul\":22813:22817   */\n      dup3\n        /* \"#utility.yul\":22810:22831   */\n      or\n        /* \"#utility.yul\":22802:22831   */\n      swap1\n      pop\n        /* \"#utility.yul\":22542:22837   */\n      swap3\n      swap2\n      pop\n      pop\n      jump\t// out\n        /* \"#utility.yul\":22842:24237   */\n    tag_90:\n        /* \"#utility.yul\":22959:22996   */\n      tag_422\n        /* \"#utility.yul\":22992:22995   */\n      dup3\n        /* \"#utility.yul\":22959:22996   */\n      tag_107\n      jump\t// in\n    tag_422:\n        /* \"#utility.yul\":23061:23079   */\n      0xffffffffffffffff\n        /* \"#utility.yul\":23053:23059   */\n      dup2\n        /* \"#utility.yul\":23050:23080   */\n      gt\n        /* \"#utility.yul\":23047:23103   */\n      iszero\n      tag_423\n      jumpi\n        /* \"#utility.yul\":23083:23101   */\n      tag_424\n      tag_35\n      jump\t// in\n    tag_424:\n        /* \"#utility.yul\":23047:23103   */\n    tag_423:\n        /* \"#utility.yul\":23127:23165   */\n      tag_425\n        /* \"#utility.yul\":23159:23163   */\n      dup3\n        /* \"#utility.yul\":23153:23164   */\n      sload\n        /* \"#utility.yul\":23127:23165   */\n      tag_52\n      jump\t// in\n    tag_425:\n        /* \"#utility.yul\":23212:23279   */\n      tag_426\n        /* \"#utility.yul\":23272:23278   */\n      dup3\n        /* \"#utility.yul\":23264:23270   */\n      dup3\n        /* \"#utility.yul\":23258:23262   */\n      dup6\n        /* \"#utility.yul\":23212:23279   */\n      tag_178\n      jump\t// in\n    tag_426:\n        /* \"#utility.yul\":23306:23307   */\n      0x00\n        /* \"#utility.yul\":23330:23334   */\n      0x20\n        /* \"#utility.yul\":23317:23334   */\n      swap1\n      pop\n        /* \"#utility.yul\":23362:23364   */\n      0x1f\n        /* \"#utility.yul\":23354:23360   */\n      dup4\n        /* \"#utility.yul\":23351:23365   */\n      gt\n        /* \"#utility.yul\":23379:23380   */\n      0x01\n        /* \"#utility.yul\":23374:23992   */\n      dup2\n      eq\n      tag_428\n      jumpi\n        /* \"#utility.yul\":24036:24037   */\n      0x00\n        /* \"#utility.yul\":24053:24059   */\n      dup5\n        /* \"#utility.yul\":24050:24127   */\n      iszero\n      tag_429\n      jumpi\n        /* \"#utility.yul\":24102:24111   */\n      dup3\n        /* \"#utility.yul\":24097:24100   */\n      dup8\n        /* \"#utility.yul\":24093:24112   */\n      add\n        /* \"#utility.yul\":24087:24113   */\n      mload\n        /* \"#utility.yul\":24078:24113   */\n      swap1\n      pop\n        /* \"#utility.yul\":24050:24127   */\n    tag_429:\n        /* \"#utility.yul\":24153:24220   */\n      tag_430\n        /* \"#utility.yul\":24213:24219   */\n      dup6\n        /* \"#utility.yul\":24206:24211   */\n      dup3\n        /* \"#utility.yul\":24153:24220   */\n      tag_181\n      jump\t// in\n    tag_430:\n        /* \"#utility.yul\":24147:24151   */\n      dup7\n        /* \"#utility.yul\":24140:24221   */\n      sstore\n        /* \"#utility.yul\":24009:24231   */\n      pop\n        /* \"#utility.yul\":23344:24231   */\n      jump(tag_427)\n        /* \"#utility.yul\":23374:23992   */\n    tag_428:\n        /* \"#utility.yul\":23426:23430   */\n      0x1f\n        /* \"#utility.yul\":23422:23431   */\n      not\n        /* \"#utility.yul\":23414:23420   */\n      dup5\n        /* \"#utility.yul\":23410:23432   */\n      and\n        /* \"#utility.yul\":23460:23497   */\n      tag_431\n        /* \"#utility.yul\":23492:23496   */\n      dup7\n        /* \"#utility.yul\":23460:23497   */\n      tag_167\n      jump\t// in\n    tag_431:\n        /* \"#utility.yul\":23519:23520   */\n      0x00\n        /* \"#utility.yul\":23533:23741   */\n    tag_432:\n        /* \"#utility.yul\":23547:23554   */\n      dup3\n        /* \"#utility.yul\":23544:23545   */\n      dup2\n        /* \"#utility.yul\":23541:23555   */\n      lt\n        /* \"#utility.yul\":23533:23741   */\n      iszero\n      tag_434\n      jumpi\n        /* \"#utility.yul\":23626:23635   */\n      dup5\n        /* \"#utility.yul\":23621:23624   */\n      dup10\n        /* \"#utility.yul\":23617:23636   */\n      add\n        /* \"#utility.yul\":23611:23637   */\n      mload\n        /* \"#utility.yul\":23603:23609   */\n      dup3\n        /* \"#utility.yul\":23596:23638   */\n      sstore\n        /* \"#utility.yul\":23677:23678   */\n      0x01\n        /* \"#utility.yul\":23669:23675   */\n      dup3\n        /* \"#utility.yul\":23665:23679   */\n      add\n        /* \"#utility.yul\":23655:23679   */\n      swap2\n      pop\n        /* \"#utility.yul\":23724:23726   */\n      0x20\n        /* \"#utility.yul\":23713:23722   */\n      dup6\n        /* \"#utility.yul\":23709:23727   */\n      add\n        /* \"#utility.yul\":23696:23727   */\n      swap5\n      pop\n        /* \"#utility.yul\":23570:23574   */\n      0x20\n        /* \"#utility.yul\":23567:23568   */\n      dup2\n        /* \"#utility.yul\":23563:23575   */\n      add\n        /* \"#utility.yul\":23558:23575   */\n      swap1\n      pop\n        /* \"#utility.yul\":23533:23741   */\n      jump(tag_432)\n    tag_434:\n        /* \"#utility.yul\":23769:23775   */\n      dup7\n        /* \"#utility.yul\":23760:23767   */\n      dup4\n        /* \"#utility.yul\":23757:23776   */\n      lt\n        /* \"#utility.yul\":23754:23933   */\n      iszero\n      tag_435\n      jumpi\n        /* \"#utility.yul\":23827:23836   */\n      dup5\n        /* \"#utility.yul\":23822:23825   */\n      dup10\n        /* \"#utility.yul\":23818:23837   */\n      add\n        /* \"#utility.yul\":23812:23838   */\n      mload\n        /* \"#utility.yul\":23870:23918   */\n      tag_436\n        /* \"#utility.yul\":23912:23916   */\n      0x1f\n        /* \"#utility.yul\":23904:23910   */\n      dup10\n        /* \"#utility.yul\":23900:23917   */\n      and\n        /* \"#utility.yul\":23889:23898   */\n      dup3\n        /* \"#utility.yul\":23870:23918   */\n      tag_180\n      jump\t// in\n    tag_436:\n        /* \"#utility.yul\":23862:23868   */\n      dup4\n        /* \"#utility.yul\":23855:23919   */\n      sstore\n        /* \"#utility.yul\":23777:23933   */\n      pop\n        /* \"#utility.yul\":23754:23933   */\n    tag_435:\n        /* \"#utility.yul\":23979:23980   */\n      0x01\n        /* \"#utility.yul\":23975:23976   */\n      0x02\n        /* \"#utility.yul\":23967:23973   */\n      dup9\n        /* \"#utility.yul\":23963:23977   */\n      mul\n        /* \"#utility.yul\":23959:23981   */\n      add\n        /* \"#utility.yul\":23953:23957   */\n      dup9\n        /* \"#utility.yul\":23946:23982   */\n      sstore\n        /* \"#utility.yul\":23381:23992   */\n      pop\n      pop\n      pop\n        /* \"#utility.yul\":23344:24231   */\n    tag_427:\n      pop\n        /* \"#utility.yul\":22934:24237   */\n      pop\n      pop\n      pop\n        /* \"#utility.yul\":22842:24237   */\n      pop\n      pop\n      jump\t// out\n\n    auxdata: 0xa264697066735822122098c993ecaf2d76d1e49f515fb93ee28d633c55ed21e9b3cd9b211c37dad8574964736f6c634300081c0033\n}\n",
				"bytecode": {
					"linkReferences": {},
					"object": "6080604052348015600e575f5ffd5b506112b78061001c5f395ff3fe608060405234801561000f575f5ffd5b5060043610610055575f3560e01c806304e48bd1146100595780630d1903741461007a578063c4b88751146100aa578063c88a3470146100dd578063f1c9342e146100f9575b5f5ffd5b610061610129565b6040516100719493929190610a93565b60405180910390f35b610094600480360381019061008f9190610c7c565b610460565b6040516100a19190610cf7565b60405180910390f35b6100c460048036038101906100bf9190610d3a565b610495565b6040516100d49493929190610de5565b60405180910390f35b6100f760048036038101906100f29190610c7c565b61055e565b005b610113600480360381019061010e9190610e2f565b6106ad565b6040516101209190610cf7565b60405180910390f35b6060806060805f60018054905090505f8167ffffffffffffffff81111561015357610152610b0b565b5b60405190808252806020026020018201604052801561018657816020015b60608152602001906001900390816101715790505b5090505f8267ffffffffffffffff8111156101a4576101a3610b0b565b5b6040519080825280602002602001820160405280156101d25781602001602082028036833780820191505090505b5090505f8367ffffffffffffffff8111156101f0576101ef610b0b565b5b60405190808252806020026020018201604052801561021e5781602001602082028036833780820191505090505b5090505f5f90505b848110156103f8575f6001828154811061024357610242610e5a565b5b905f5260205f20015490505f5f5f8381526020019081526020015f206040518060800160405290815f8201805461027990610eb4565b80601f01602080910402602001604051908101604052809291908181526020018280546102a590610eb4565b80156102f05780601f106102c7576101008083540402835291602001916102f0565b820191905f5260205f20905b8154815290600101906020018083116102d357829003601f168201915b50505050508152602001600182015f9054906101000a900460ff16600181111561031d5761031c6108e1565b5b600181111561032f5761032e6108e1565b5b815260200160028201548152602001600382015f9054906101000a900460ff1615151515815250509050805f01518684815181106103705761036f610e5a565b5b6020026020010181905250806020015185848151811061039357610392610e5a565b5b602002602001019060018111156103ad576103ac6108e1565b5b908160018111156103c1576103c06108e1565b5b8152505080604001518484815181106103dd576103dc610e5a565b5b60200260200101818152505050508080600101915050610226565b5060018383838380548060200260200160405190810160405280929190818152602001828054801561044757602002820191905f5260205f20905b815481526020019060010190808311610433575b5050505050935097509750975097505050505090919293565b5f83838360405160200161047693929190610f72565b6040516020818303038152906040528051906020012090509392505050565b5f602052805f5260405f205f91509050805f0180546104b390610eb4565b80601f01602080910402602001604051908101604052809291908181526020018280546104df90610eb4565b801561052a5780601f106105015761010080835404028352916020019161052a565b820191905f5260205f20905b81548152906001019060200180831161050d57829003601f168201915b505050505090806001015f9054906101000a900460ff1690806002015490806003015f9054906101000a900460ff16905084565b5f61056a848484610460565b90505f5f8281526020019081526020015f206003015f9054906101000a900460ff16156105cc576040517f08c379a00000000000000000000000000000000000000000000000000000000081526004016105c390610ff4565b60405180910390fd5b60405180608001604052808581526020018460018111156105f0576105ef6108e1565b5b8152602001838152602001600115158152505f5f8381526020019081526020015f205f820151815f01908161062591906111b2565b506020820151816001015f6101000a81548160ff021916908360018111156106505761064f6108e1565b5b0217905550604082015181600201556060820151816003015f6101000a81548160ff021916908315150217905550905050600181908060018154018082558091505060019003905f5260205f20015f909190919091505550505050565b600181815481106106bc575f80fd5b905f5260205f20015f915090505481565b5f81519050919050565b5f82825260208201905092915050565b5f819050602082019050919050565b5f819050919050565b610708816106f6565b82525050565b5f61071983836106ff565b60208301905092915050565b5f602082019050919050565b5f61073b826106cd565b61074581856106d7565b9350610750836106e7565b805f5b83811015610780578151610767888261070e565b975061077283610725565b925050600181019050610753565b5085935050505092915050565b5f81519050919050565b5f82825260208201905092915050565b5f819050602082019050919050565b5f81519050919050565b5f82825260208201905092915050565b8281835e5f83830152505050565b5f601f19601f8301169050919050565b5f6107f8826107b6565b61080281856107c0565b93506108128185602086016107d0565b61081b816107de565b840191505092915050565b5f61083183836107ee565b905092915050565b5f602082019050919050565b5f61084f8261078d565b6108598185610797565b93508360208202850161086b856107a7565b805f5b858110156108a657848403895281516108878582610826565b945061089283610839565b925060208a0199505060018101905061086e565b50829750879550505050505092915050565b5f81519050919050565b5f82825260208201905092915050565b5f819050602082019050919050565b7f4e487b71000000000000000000000000000000000000000000000000000000005f52602160045260245ffd5b6002811061091f5761091e6108e1565b5b50565b5f81905061092f8261090e565b919050565b5f61093e82610922565b9050919050565b61094e81610934565b82525050565b5f61095f8383610945565b60208301905092915050565b5f602082019050919050565b5f610981826108b8565b61098b81856108c2565b9350610996836108d2565b805f5b838110156109c65781516109ad8882610954565b97506109b88361096b565b925050600181019050610999565b5085935050505092915050565b5f81519050919050565b5f82825260208201905092915050565b5f819050602082019050919050565b5f819050919050565b610a0e816109fc565b82525050565b5f610a1f8383610a05565b60208301905092915050565b5f602082019050919050565b5f610a41826109d3565b610a4b81856109dd565b9350610a56836109ed565b805f5b83811015610a86578151610a6d8882610a14565b9750610a7883610a2b565b925050600181019050610a59565b5085935050505092915050565b5f6080820190508181035f830152610aab8187610731565b90508181036020830152610abf8186610845565b90508181036040830152610ad38185610977565b90508181036060830152610ae78184610a37565b905095945050505050565b5f604051905090565b5f5ffd5b5f5ffd5b5f5ffd5b5f5ffd5b7f4e487b71000000000000000000000000000000000000000000000000000000005f52604160045260245ffd5b610b41826107de565b810181811067ffffffffffffffff82111715610b6057610b5f610b0b565b5b80604052505050565b5f610b72610af2565b9050610b7e8282610b38565b919050565b5f67ffffffffffffffff821115610b9d57610b9c610b0b565b5b610ba6826107de565b9050602081019050919050565b828183375f83830152505050565b5f610bd3610bce84610b83565b610b69565b905082815260208101848484011115610bef57610bee610b07565b5b610bfa848285610bb3565b509392505050565b5f82601f830112610c1657610c15610b03565b5b8135610c26848260208601610bc1565b91505092915050565b60028110610c3b575f5ffd5b50565b5f81359050610c4c81610c2f565b92915050565b610c5b816109fc565b8114610c65575f5ffd5b50565b5f81359050610c7681610c52565b92915050565b5f5f5f60608486031215610c9357610c92610afb565b5b5f84013567ffffffffffffffff811115610cb057610caf610aff565b5b610cbc86828701610c02565b9350506020610ccd86828701610c3e565b9250506040610cde86828701610c68565b9150509250925092565b610cf1816106f6565b82525050565b5f602082019050610d0a5f830184610ce8565b92915050565b610d19816106f6565b8114610d23575f5ffd5b50565b5f81359050610d3481610d10565b92915050565b5f60208284031215610d4f57610d4e610afb565b5b5f610d5c84828501610d26565b91505092915050565b5f82825260208201905092915050565b5f610d7f826107b6565b610d898185610d65565b9350610d998185602086016107d0565b610da2816107de565b840191505092915050565b610db681610934565b82525050565b610dc5816109fc565b82525050565b5f8115159050919050565b610ddf81610dcb565b82525050565b5f6080820190508181035f830152610dfd8187610d75565b9050610e0c6020830186610dad565b610e196040830185610dbc565b610e266060830184610dd6565b95945050505050565b5f60208284031215610e4457610e43610afb565b5b5f610e5184828501610c68565b91505092915050565b7f4e487b71000000000000000000000000000000000000000000000000000000005f52603260045260245ffd5b7f4e487b71000000000000000000000000000000000000000000000000000000005f52602260045260245ffd5b5f6002820490506001821680610ecb57607f821691505b602082108103610ede57610edd610e87565b5b50919050565b5f81905092915050565b5f610ef8826107b6565b610f028185610ee4565b9350610f128185602086016107d0565b80840191505092915050565b5f8160f81b9050919050565b5f610f3482610f1e565b9050919050565b610f4c610f4782610934565b610f2a565b82525050565b5f819050919050565b610f6c610f67826109fc565b610f52565b82525050565b5f610f7d8286610eee565b9150610f898285610f3b565b600182019150610f998284610f5b565b602082019150819050949350505050565b7f436f7572736520616c72656164792065786973747300000000000000000000005f82015250565b5f610fde601583610d65565b9150610fe982610faa565b602082019050919050565b5f6020820190508181035f83015261100b81610fd2565b9050919050565b5f819050815f5260205f209050919050565b5f6020601f8301049050919050565b5f82821b905092915050565b5f6008830261106e7fffffffffffffffffffffffffffffffffffffffffffffffffffffffffffffffff82611033565b6110788683611033565b95508019841693508086168417925050509392505050565b5f819050919050565b5f6110b36110ae6110a9846109fc565b611090565b6109fc565b9050919050565b5f819050919050565b6110cc83611099565b6110e06110d8826110ba565b84845461103f565b825550505050565b5f5f905090565b6110f76110e8565b6111028184846110c3565b505050565b5b818110156111255761111a5f826110ef565b600181019050611108565b5050565b601f82111561116a5761113b81611012565b61114484611024565b81016020851015611153578190505b61116761115f85611024565b830182611107565b50505b505050565b5f82821c905092915050565b5f61118a5f198460080261116f565b1980831691505092915050565b5f6111a2838361117b565b9150826002028217905092915050565b6111bb826107b6565b67ffffffffffffffff8111156111d4576111d3610b0b565b5b6111de8254610eb4565b6111e9828285611129565b5f60209050601f83116001811461121a575f8415611208578287015190505b6112128582611197565b865550611279565b601f19841661122886611012565b5f5b8281101561124f5784890151825560018201915060208501945060208101905061122a565b8683101561126c5784890151611268601f89168261117b565b8355505b6001600288020188555050505b50505050505056fea264697066735822122098c993ecaf2d76d1e49f515fb93ee28d633c55ed21e9b3cd9b211c37dad8574964736f6c634300081c0033",
					"opcodes": "PUSH1 0x80 PUSH1 0x40 MSTORE CALLVALUE DUP1 ISZERO PUSH1 0xE JUMPI PUSH0 PUSH0 REVERT JUMPDEST POP PUSH2 0x12B7 DUP1 PUSH2 0x1C PUSH0 CODECOPY PUSH0 RETURN INVALID PUSH1 0x80 PUSH1 0x40 MSTORE CALLVALUE DUP1 ISZERO PUSH2 0xF JUMPI PUSH0 PUSH0 REVERT JUMPDEST POP PUSH1 0x4 CALLDATASIZE LT PUSH2 0x55 JUMPI PUSH0 CALLDATALOAD PUSH1 0xE0 SHR DUP1 PUSH4 0x4E48BD1 EQ PUSH2 0x59 JUMPI DUP1 PUSH4 0xD190374 EQ PUSH2 0x7A JUMPI DUP1 PUSH4 0xC4B88751 EQ PUSH2 0xAA JUMPI DUP1 PUSH4 0xC88A3470 EQ PUSH2 0xDD JUMPI DUP1 PUSH4 0xF1C9342E EQ PUSH2 0xF9 JUMPI JUMPDEST PUSH0 PUSH0 REVERT JUMPDEST PUSH2 0x61 PUSH2 0x129 JUMP JUMPDEST PUSH1 0x40 MLOAD PUSH2 0x71 SWAP5 SWAP4 SWAP3 SWAP2 SWAP1 PUSH2 0xA93 JUMP JUMPDEST PUSH1 0x40 MLOAD DUP1 SWAP2 SUB SWAP1 RETURN JUMPDEST PUSH2 0x94 PUSH1 0x4 DUP1 CALLDATASIZE SUB DUP2 ADD SWAP1 PUSH2 0x8F SWAP2 SWAP1 PUSH2 0xC7C JUMP JUMPDEST PUSH2 0x460 JUMP JUMPDEST PUSH1 0x40 MLOAD PUSH2 0xA1 SWAP2 SWAP1 PUSH2 0xCF7 JUMP JUMPDEST PUSH1 0x40 MLOAD DUP1 SWAP2 SUB SWAP1 RETURN JUMPDEST PUSH2 0xC4 PUSH1 0x4 DUP1 CALLDATASIZE SUB DUP2 ADD SWAP1 PUSH2 0xBF SWAP2 SWAP1 PUSH2 0xD3A JUMP JUMPDEST PUSH2 0x495 JUMP JUMPDEST PUSH1 0x40 MLOAD PUSH2 0xD4 SWAP5 SWAP4 SWAP3 SWAP2 SWAP1 PUSH2 0xDE5 JUMP JUMPDEST PUSH1 0x40 MLOAD DUP1 SWAP2 SUB SWAP1 RETURN JUMPDEST PUSH2 0xF7 PUSH1 0x4 DUP1 CALLDATASIZE SUB DUP2 ADD SWAP1 PUSH2 0xF2 SWAP2 SWAP1 PUSH2 0xC7C JUMP JUMPDEST PUSH2 0x55E JUMP JUMPDEST STOP JUMPDEST PUSH2 0x113 PUSH1 0x4 DUP1 CALLDATASIZE SUB DUP2 ADD SWAP1 PUSH2 0x10E SWAP2 SWAP1 PUSH2 0xE2F JUMP JUMPDEST PUSH2 0x6AD JUMP JUMPDEST PUSH1 0x40 MLOAD PUSH2 0x120 SWAP2 SWAP1 PUSH2 0xCF7 JUMP JUMPDEST PUSH1 0x40 MLOAD DUP1 SWAP2 SUB SWAP1 RETURN JUMPDEST PUSH1 0x60 DUP1 PUSH1 0x60 DUP1 PUSH0 PUSH1 0x1 DUP1 SLOAD SWAP1 POP SWAP1 POP PUSH0 DUP2 PUSH8 0xFFFFFFFFFFFFFFFF DUP2 GT ISZERO PUSH2 0x153 JUMPI PUSH2 0x152 PUSH2 0xB0B JUMP JUMPDEST JUMPDEST PUSH1 0x40 MLOAD SWAP1 DUP1 DUP3 MSTORE DUP1 PUSH1 0x20 MUL PUSH1 0x20 ADD DUP3 ADD PUSH1 0x40 MSTORE DUP1 ISZERO PUSH2 0x186 JUMPI DUP2 PUSH1 0x20 ADD JUMPDEST PUSH1 0x60 DUP2 MSTORE PUSH1 0x20 ADD SWAP1 PUSH1 0x1 SWAP1 SUB SWAP1 DUP2 PUSH2 0x171 JUMPI SWAP1 POP JUMPDEST POP SWAP1 POP PUSH0 DUP3 PUSH8 0xFFFFFFFFFFFFFFFF DUP2 GT ISZERO PUSH2 0x1A4 JUMPI PUSH2 0x1A3 PUSH2 0xB0B JUMP JUMPDEST JUMPDEST PUSH1 0x40 MLOAD SWAP1 DUP1 DUP3 MSTORE DUP1 PUSH1 0x20 MUL PUSH1 0x20 ADD DUP3 ADD PUSH1 0x40 MSTORE DUP1 ISZERO PUSH2 0x1D2 JUMPI DUP2 PUSH1 0x20 ADD PUSH1 0x20 DUP3 MUL DUP1 CALLDATASIZE DUP4 CALLDATACOPY DUP1 DUP3 ADD SWAP2 POP POP SWAP1 POP JUMPDEST POP SWAP1 POP PUSH0 DUP4 PUSH8 0xFFFFFFFFFFFFFFFF DUP2 GT ISZERO PUSH2 0x1F0 JUMPI PUSH2 0x1EF PUSH2 0xB0B JUMP JUMPDEST JUMPDEST PUSH1 0x40 MLOAD SWAP1 DUP1 DUP3 MSTORE DUP1 PUSH1 0x20 MUL PUSH1 0x20 ADD DUP3 ADD PUSH1 0x40 MSTORE DUP1 ISZERO PUSH2 0x21E JUMPI DUP2 PUSH1 0x20 ADD PUSH1 0x20 DUP3 MUL DUP1 CALLDATASIZE DUP4 CALLDATACOPY DUP1 DUP3 ADD SWAP2 POP POP SWAP1 POP JUMPDEST POP SWAP1 POP PUSH0 PUSH0 SWAP1 POP JUMPDEST DUP5 DUP2 LT ISZERO PUSH2 0x3F8 JUMPI PUSH0 PUSH1 0x1 DUP3 DUP2 SLOAD DUP2 LT PUSH2 0x243 JUMPI PUSH2 0x242 PUSH2 0xE5A JUMP JUMPDEST JUMPDEST SWAP1 PUSH0 MSTORE PUSH1 0x20 PUSH0 KECCAK256 ADD SLOAD SWAP1 POP PUSH0 PUSH0 PUSH0 DUP4 DUP2 MSTORE PUSH1 0x20 ADD SWAP1 DUP2 MSTORE PUSH1 0x20 ADD PUSH0 KECCAK256 PUSH1 0x40 MLOAD DUP1 PUSH1 0x80 ADD PUSH1 0x40 MSTORE SWAP1 DUP2 PUSH0 DUP3 ADD DUP1 SLOAD PUSH2 0x279 SWAP1 PUSH2 0xEB4 JUMP JUMPDEST DUP1 PUSH1 0x1F ADD PUSH1 0x20 DUP1 SWAP2 DIV MUL PUSH1 0x20 ADD PUSH1 0x40 MLOAD SWAP1 DUP2 ADD PUSH1 0x40 MSTORE DUP1 SWAP3 SWAP2 SWAP1 DUP2 DUP2 MSTORE PUSH1 0x20 ADD DUP3 DUP1 SLOAD PUSH2 0x2A5 SWAP1 PUSH2 0xEB4 JUMP JUMPDEST DUP1 ISZERO PUSH2 0x2F0 JUMPI DUP1 PUSH1 0x1F LT PUSH2 0x2C7 JUMPI PUSH2 0x100 DUP1 DUP4 SLOAD DIV MUL DUP4 MSTORE SWAP2 PUSH1 0x20 ADD SWAP2 PUSH2 0x2F0 JUMP JUMPDEST DUP3 ADD SWAP2 SWAP1 PUSH0 MSTORE PUSH1 0x20 PUSH0 KECCAK256 SWAP1 JUMPDEST DUP2 SLOAD DUP2 MSTORE SWAP1 PUSH1 0x1 ADD SWAP1 PUSH1 0x20 ADD DUP1 DUP4 GT PUSH2 0x2D3 JUMPI DUP3 SWAP1 SUB PUSH1 0x1F AND DUP3 ADD SWAP2 JUMPDEST POP POP POP POP POP DUP2 MSTORE PUSH1 0x20 ADD PUSH1 0x1 DUP3 ADD PUSH0 SWAP1 SLOAD SWAP1 PUSH2 0x100 EXP SWAP1 DIV PUSH1 0xFF AND PUSH1 0x1 DUP2 GT ISZERO PUSH2 0x31D JUMPI PUSH2 0x31C PUSH2 0x8E1 JUMP JUMPDEST JUMPDEST PUSH1 0x1 DUP2 GT ISZERO PUSH2 0x32F JUMPI PUSH2 0x32E PUSH2 0x8E1 JUMP JUMPDEST JUMPDEST DUP2 MSTORE PUSH1 0x20 ADD PUSH1 0x2 DUP3 ADD SLOAD DUP2 MSTORE PUSH1 0x20 ADD PUSH1 0x3 DUP3 ADD PUSH0 SWAP1 SLOAD SWAP1 PUSH2 0x100 EXP SWAP1 DIV PUSH1 0xFF AND ISZERO ISZERO ISZERO ISZERO DUP2 MSTORE POP POP SWAP1 POP DUP1 PUSH0 ADD MLOAD DUP7 DUP5 DUP2 MLOAD DUP2 LT PUSH2 0x370 JUMPI PUSH2 0x36F PUSH2 0xE5A JUMP JUMPDEST JUMPDEST PUSH1 0x20 MUL PUSH1 0x20 ADD ADD DUP2 SWAP1 MSTORE POP DUP1 PUSH1 0x20 ADD MLOAD DUP6 DUP5 DUP2 MLOAD DUP2 LT PUSH2 0x393 JUMPI PUSH2 0x392 PUSH2 0xE5A JUMP JUMPDEST JUMPDEST PUSH1 0x20 MUL PUSH1 0x20 ADD ADD SWAP1 PUSH1 0x1 DUP2 GT ISZERO PUSH2 0x3AD JUMPI PUSH2 0x3AC PUSH2 0x8E1 JUMP JUMPDEST JUMPDEST SWAP1 DUP2 PUSH1 0x1 DUP2 GT ISZERO PUSH2 0x3C1 JUMPI PUSH2 0x3C0 PUSH2 0x8E1 JUMP JUMPDEST JUMPDEST DUP2 MSTORE POP POP DUP1 PUSH1 0x40 ADD MLOAD DUP5 DUP5 DUP2 MLOAD DUP2 LT PUSH2 0x3DD JUMPI PUSH2 0x3DC PUSH2 0xE5A JUMP JUMPDEST JUMPDEST PUSH1 0x20 MUL PUSH1 0x20 ADD ADD DUP2 DUP2 MSTORE POP POP POP POP DUP1 DUP1 PUSH1 0x1 ADD SWAP2 POP POP PUSH2 0x226 JUMP JUMPDEST POP PUSH1 0x1 DUP4 DUP4 DUP4 DUP4 DUP1 SLOAD DUP1 PUSH1 0x20 MUL PUSH1 0x20 ADD PUSH1 0x40 MLOAD SWAP1 DUP2 ADD PUSH1 0x40 MSTORE DUP1 SWAP3 SWAP2 SWAP1 DUP2 DUP2 MSTORE PUSH1 0x20 ADD DUP3 DUP1 SLOAD DUP1 ISZERO PUSH2 0x447 JUMPI PUSH1 0x20 MUL DUP3 ADD SWAP2 SWAP1 PUSH0 MSTORE PUSH1 0x20 PUSH0 KECCAK256 SWAP1 JUMPDEST DUP2 SLOAD DUP2 MSTORE PUSH1 0x20 ADD SWAP1 PUSH1 0x1 ADD SWAP1 DUP1 DUP4 GT PUSH2 0x433 JUMPI JUMPDEST POP POP POP POP POP SWAP4 POP SWAP8 POP SWAP8 POP SWAP8 POP SWAP8 POP POP POP POP POP SWAP1 SWAP2 SWAP3 SWAP4 JUMP JUMPDEST PUSH0 DUP4 DUP4 DUP4 PUSH1 0x40 MLOAD PUSH1 0x20 ADD PUSH2 0x476 SWAP4 SWAP3 SWAP2 SWAP1 PUSH2 0xF72 JUMP JUMPDEST PUSH1 0x40 MLOAD PUSH1 0x20 DUP2 DUP4 SUB SUB DUP2 MSTORE SWAP1 PUSH1 0x40 MSTORE DUP1 MLOAD SWAP1 PUSH1 0x20 ADD KECCAK256 SWAP1 POP SWAP4 SWAP3 POP POP POP JUMP JUMPDEST PUSH0 PUSH1 0x20 MSTORE DUP1 PUSH0 MSTORE PUSH1 0x40 PUSH0 KECCAK256 PUSH0 SWAP2 POP SWAP1 POP DUP1 PUSH0 ADD DUP1 SLOAD PUSH2 0x4B3 SWAP1 PUSH2 0xEB4 JUMP JUMPDEST DUP1 PUSH1 0x1F ADD PUSH1 0x20 DUP1 SWAP2 DIV MUL PUSH1 0x20 ADD PUSH1 0x40 MLOAD SWAP1 DUP2 ADD PUSH1 0x40 MSTORE DUP1 SWAP3 SWAP2 SWAP1 DUP2 DUP2 MSTORE PUSH1 0x20 ADD DUP3 DUP1 SLOAD PUSH2 0x4DF SWAP1 PUSH2 0xEB4 JUMP JUMPDEST DUP1 ISZERO PUSH2 0x52A JUMPI DUP1 PUSH1 0x1F LT PUSH2 0x501 JUMPI PUSH2 0x100 DUP1 DUP4 SLOAD DIV MUL DUP4 MSTORE SWAP2 PUSH1 0x20 ADD SWAP2 PUSH2 0x52A JUMP JUMPDEST DUP3 ADD SWAP2 SWAP1 PUSH0 MSTORE PUSH1 0x20 PUSH0 KECCAK256 SWAP1 JUMPDEST DUP2 SLOAD DUP2 MSTORE SWAP1 PUSH1 0x1 ADD SWAP1 PUSH1 0x20 ADD DUP1 DUP4 GT PUSH2 0x50D JUMPI DUP3 SWAP1 SUB PUSH1 0x1F AND DUP3 ADD SWAP2 JUMPDEST POP POP POP POP POP SWAP1 DUP1 PUSH1 0x1 ADD PUSH0 SWAP1 SLOAD SWAP1 PUSH2 0x100 EXP SWAP1 DIV PUSH1 0xFF AND SWAP1 DUP1 PUSH1 0x2 ADD SLOAD SWAP1 DUP1 PUSH1 0x3 ADD PUSH0 SWAP1 SLOAD SWAP1 PUSH2 0x100 EXP SWAP1 DIV PUSH1 0xFF AND SWAP1 POP DUP5 JUMP JUMPDEST PUSH0 PUSH2 0x56A DUP5 DUP5 DUP5 PUSH2 0x460 JUMP JUMPDEST SWAP1 POP PUSH0 PUSH0 DUP3 DUP2 MSTORE PUSH1 0x20 ADD SWAP1 DUP2 MSTORE PUSH1 0x20 ADD PUSH0 KECCAK256 PUSH1 0x3 ADD PUSH0 SWAP1 SLOAD SWAP1 PUSH2 0x100 EXP SWAP1 DIV PUSH1 0xFF AND ISZERO PUSH2 0x5CC JUMPI PUSH1 0x40 MLOAD PUSH32 0x8C379A000000000000000000000000000000000000000000000000000000000 DUP2 MSTORE PUSH1 0x4 ADD PUSH2 0x5C3 SWAP1 PUSH2 0xFF4 JUMP JUMPDEST PUSH1 0x40 MLOAD DUP1 SWAP2 SUB SWAP1 REVERT JUMPDEST PUSH1 0x40 MLOAD DUP1 PUSH1 0x80 ADD PUSH1 0x40 MSTORE DUP1 DUP6 DUP2 MSTORE PUSH1 0x20 ADD DUP5 PUSH1 0x1 DUP2 GT ISZERO PUSH2 0x5F0 JUMPI PUSH2 0x5EF PUSH2 0x8E1 JUMP JUMPDEST JUMPDEST DUP2 MSTORE PUSH1 0x20 ADD DUP4 DUP2 MSTORE PUSH1 0x20 ADD PUSH1 0x1 ISZERO ISZERO DUP2 MSTORE POP PUSH0 PUSH0 DUP4 DUP2 MSTORE PUSH1 0x20 ADD SWAP1 DUP2 MSTORE PUSH1 0x20 ADD PUSH0 KECCAK256 PUSH0 DUP3 ADD MLOAD DUP2 PUSH0 ADD SWAP1 DUP2 PUSH2 0x625 SWAP2 SWAP1 PUSH2 0x11B2 JUMP JUMPDEST POP PUSH1 0x20 DUP3 ADD MLOAD DUP2 PUSH1 0x1 ADD PUSH0 PUSH2 0x100 EXP DUP2 SLOAD DUP2 PUSH1 0xFF MUL NOT AND SWAP1 DUP4 PUSH1 0x1 DUP2 GT ISZERO PUSH2 0x650 JUMPI PUSH2 0x64F PUSH2 0x8E1 JUMP JUMPDEST JUMPDEST MUL OR SWAP1 SSTORE POP PUSH1 0x40 DUP3 ADD MLOAD DUP2 PUSH1 0x2 ADD SSTORE PUSH1 0x60 DUP3 ADD MLOAD DUP2 PUSH1 0x3 ADD PUSH0 PUSH2 0x100 EXP DUP2 SLOAD DUP2 PUSH1 0xFF MUL NOT AND SWAP1 DUP4 ISZERO ISZERO MUL OR SWAP1 SSTORE POP SWAP1 POP POP PUSH1 0x1 DUP2 SWAP1 DUP1 PUSH1 0x1 DUP2 SLOAD ADD DUP1 DUP3 SSTORE DUP1 SWAP2 POP POP PUSH1 0x1 SWAP1 SUB SWAP1 PUSH0 MSTORE PUSH1 0x20 PUSH0 KECCAK256 ADD PUSH0 SWAP1 SWAP2 SWAP1 SWAP2 SWAP1 SWAP2 POP SSTORE POP POP POP POP JUMP JUMPDEST PUSH1 0x1 DUP2 DUP2 SLOAD DUP2 LT PUSH2 0x6BC JUMPI PUSH0 DUP1 REVERT JUMPDEST SWAP1 PUSH0 MSTORE PUSH1 0x20 PUSH0 KECCAK256 ADD PUSH0 SWAP2 POP SWAP1 POP SLOAD DUP2 JUMP JUMPDEST PUSH0 DUP2 MLOAD SWAP1 POP SWAP2 SWAP1 POP JUMP JUMPDEST PUSH0 DUP3 DUP3 MSTORE PUSH1 0x20 DUP3 ADD SWAP1 POP SWAP3 SWAP2 POP POP JUMP JUMPDEST PUSH0 DUP2 SWAP1 POP PUSH1 0x20 DUP3 ADD SWAP1 POP SWAP2 SWAP1 POP JUMP JUMPDEST PUSH0 DUP2 SWAP1 POP SWAP2 SWAP1 POP JUMP JUMPDEST PUSH2 0x708 DUP2 PUSH2 0x6F6 JUMP JUMPDEST DUP3 MSTORE POP POP JUMP JUMPDEST PUSH0 PUSH2 0x719 DUP4 DUP4 PUSH2 0x6FF JUMP JUMPDEST PUSH1 0x20 DUP4 ADD SWAP1 POP SWAP3 SWAP2 POP POP JUMP JUMPDEST PUSH0 PUSH1 0x20 DUP3 ADD SWAP1 POP SWAP2 SWAP1 POP JUMP JUMPDEST PUSH0 PUSH2 0x73B DUP3 PUSH2 0x6CD JUMP JUMPDEST PUSH2 0x745 DUP2 DUP6 PUSH2 0x6D7 JUMP JUMPDEST SWAP4 POP PUSH2 0x750 DUP4 PUSH2 0x6E7 JUMP JUMPDEST DUP1 PUSH0 JUMPDEST DUP4 DUP2 LT ISZERO PUSH2 0x780 JUMPI DUP2 MLOAD PUSH2 0x767 DUP9 DUP3 PUSH2 0x70E JUMP JUMPDEST SWAP8 POP PUSH2 0x772 DUP4 PUSH2 0x725 JUMP JUMPDEST SWAP3 POP POP PUSH1 0x1 DUP2 ADD SWAP1 POP PUSH2 0x753 JUMP JUMPDEST POP DUP6 SWAP4 POP POP POP POP SWAP3 SWAP2 POP POP JUMP JUMPDEST PUSH0 DUP2 MLOAD SWAP1 POP SWAP2 SWAP1 POP JUMP JUMPDEST PUSH0 DUP3 DUP3 MSTORE PUSH1 0x20 DUP3 ADD SWAP1 POP SWAP3 SWAP2 POP POP JUMP JUMPDEST PUSH0 DUP2 SWAP1 POP PUSH1 0x20 DUP3 ADD SWAP1 POP SWAP2 SWAP1 POP JUMP JUMPDEST PUSH0 DUP2 MLOAD SWAP1 POP SWAP2 SWAP1 POP JUMP JUMPDEST PUSH0 DUP3 DUP3 MSTORE PUSH1 0x20 DUP3 ADD SWAP1 POP SWAP3 SWAP2 POP POP JUMP JUMPDEST DUP3 DUP2 DUP4 MCOPY PUSH0 DUP4 DUP4 ADD MSTORE POP POP POP JUMP JUMPDEST PUSH0 PUSH1 0x1F NOT PUSH1 0x1F DUP4 ADD AND SWAP1 POP SWAP2 SWAP1 POP JUMP JUMPDEST PUSH0 PUSH2 0x7F8 DUP3 PUSH2 0x7B6 JUMP JUMPDEST PUSH2 0x802 DUP2 DUP6 PUSH2 0x7C0 JUMP JUMPDEST SWAP4 POP PUSH2 0x812 DUP2 DUP6 PUSH1 0x20 DUP7 ADD PUSH2 0x7D0 JUMP JUMPDEST PUSH2 0x81B DUP2 PUSH2 0x7DE JUMP JUMPDEST DUP5 ADD SWAP2 POP POP SWAP3 SWAP2 POP POP JUMP JUMPDEST PUSH0 PUSH2 0x831 DUP4 DUP4 PUSH2 0x7EE JUMP JUMPDEST SWAP1 POP SWAP3 SWAP2 POP POP JUMP JUMPDEST PUSH0 PUSH1 0x20 DUP3 ADD SWAP1 POP SWAP2 SWAP1 POP JUMP JUMPDEST PUSH0 PUSH2 0x84F DUP3 PUSH2 0x78D JUMP JUMPDEST PUSH2 0x859 DUP2 DUP6 PUSH2 0x797 JUMP JUMPDEST SWAP4 POP DUP4 PUSH1 0x20 DUP3 MUL DUP6 ADD PUSH2 0x86B DUP6 PUSH2 0x7A7 JUMP JUMPDEST DUP1 PUSH0 JUMPDEST DUP6 DUP2 LT ISZERO PUSH2 0x8A6 JUMPI DUP5 DUP5 SUB DUP10 MSTORE DUP2 MLOAD PUSH2 0x887 DUP6 DUP3 PUSH2 0x826 JUMP JUMPDEST SWAP5 POP PUSH2 0x892 DUP4 PUSH2 0x839 JUMP JUMPDEST SWAP3 POP PUSH1 0x20 DUP11 ADD SWAP10 POP POP PUSH1 0x1 DUP2 ADD SWAP1 POP PUSH2 0x86E JUMP JUMPDEST POP DUP3 SWAP8 POP DUP8 SWAP6 POP POP POP POP POP POP SWAP3 SWAP2 POP POP JUMP JUMPDEST PUSH0 DUP2 MLOAD SWAP1 POP SWAP2 SWAP1 POP JUMP JUMPDEST PUSH0 DUP3 DUP3 MSTORE PUSH1 0x20 DUP3 ADD SWAP1 POP SWAP3 SWAP2 POP POP JUMP JUMPDEST PUSH0 DUP2 SWAP1 POP PUSH1 0x20 DUP3 ADD SWAP1 POP SWAP2 SWAP1 POP JUMP JUMPDEST PUSH32 0x4E487B7100000000000000000000000000000000000000000000000000000000 PUSH0 MSTORE PUSH1 0x21 PUSH1 0x4 MSTORE PUSH1 0x24 PUSH0 REVERT JUMPDEST PUSH1 0x2 DUP2 LT PUSH2 0x91F JUMPI PUSH2 0x91E PUSH2 0x8E1 JUMP JUMPDEST JUMPDEST POP JUMP JUMPDEST PUSH0 DUP2 SWAP1 POP PUSH2 0x92F DUP3 PUSH2 0x90E JUMP JUMPDEST SWAP2 SWAP1 POP JUMP JUMPDEST PUSH0 PUSH2 0x93E DUP3 PUSH2 0x922 JUMP JUMPDEST SWAP1 POP SWAP2 SWAP1 POP JUMP JUMPDEST PUSH2 0x94E DUP2 PUSH2 0x934 JUMP JUMPDEST DUP3 MSTORE POP POP JUMP JUMPDEST PUSH0 PUSH2 0x95F DUP4 DUP4 PUSH2 0x945 JUMP JUMPDEST PUSH1 0x20 DUP4 ADD SWAP1 POP SWAP3 SWAP2 POP POP JUMP JUMPDEST PUSH0 PUSH1 0x20 DUP3 ADD SWAP1 POP SWAP2 SWAP1 POP JUMP JUMPDEST PUSH0 PUSH2 0x981 DUP3 PUSH2 0x8B8 JUMP JUMPDEST PUSH2 0x98B DUP2 DUP6 PUSH2 0x8C2 JUMP JUMPDEST SWAP4 POP PUSH2 0x996 DUP4 PUSH2 0x8D2 JUMP JUMPDEST DUP1 PUSH0 JUMPDEST DUP4 DUP2 LT ISZERO PUSH2 0x9C6 JUMPI DUP2 MLOAD PUSH2 0x9AD DUP9 DUP3 PUSH2 0x954 JUMP JUMPDEST SWAP8 POP PUSH2 0x9B8 DUP4 PUSH2 0x96B JUMP JUMPDEST SWAP3 POP POP PUSH1 0x1 DUP2 ADD SWAP1 POP PUSH2 0x999 JUMP JUMPDEST POP DUP6 SWAP4 POP POP POP POP SWAP3 SWAP2 POP POP JUMP JUMPDEST PUSH0 DUP2 MLOAD SWAP1 POP SWAP2 SWAP1 POP JUMP JUMPDEST PUSH0 DUP3 DUP3 MSTORE PUSH1 0x20 DUP3 ADD SWAP1 POP SWAP3 SWAP2 POP POP JUMP JUMPDEST PUSH0 DUP2 SWAP1 POP PUSH1 0x20 DUP3 ADD SWAP1 POP SWAP2 SWAP1 POP JUMP JUMPDEST PUSH0 DUP2 SWAP1 POP SWAP2 SWAP1 POP JUMP JUMPDEST PUSH2 0xA0E DUP2 PUSH2 0x9FC JUMP JUMPDEST DUP3 MSTORE POP POP JUMP JUMPDEST PUSH0 PUSH2 0xA1F DUP4 DUP4 PUSH2 0xA05 JUMP JUMPDEST PUSH1 0x20 DUP4 ADD SWAP1 POP SWAP3 SWAP2 POP POP JUMP JUMPDEST PUSH0 PUSH1 0x20 DUP3 ADD SWAP1 POP SWAP2 SWAP1 POP JUMP JUMPDEST PUSH0 PUSH2 0xA41 DUP3 PUSH2 0x9D3 JUMP JUMPDEST PUSH2 0xA4B DUP2 DUP6 PUSH2 0x9DD JUMP JUMPDEST SWAP4 POP PUSH2 0xA56 DUP4 PUSH2 0x9ED JUMP JUMPDEST DUP1 PUSH0 JUMPDEST DUP4 DUP2 LT ISZERO PUSH2 0xA86 JUMPI DUP2 MLOAD PUSH2 0xA6D DUP9 DUP3 PUSH2 0xA14 JUMP JUMPDEST SWAP8 POP PUSH2 0xA78 DUP4 PUSH2 0xA2B JUMP JUMPDEST SWAP3 POP POP PUSH1 0x1 DUP2 ADD SWAP1 POP PUSH2 0xA59 JUMP JUMPDEST POP DUP6 SWAP4 POP POP POP POP SWAP3 SWAP2 POP POP JUMP JUMPDEST PUSH0 PUSH1 0x80 DUP3 ADD SWAP1 POP DUP2 DUP2 SUB PUSH0 DUP4 ADD MSTORE PUSH2 0xAAB DUP2 DUP8 PUSH2 0x731 JUMP JUMPDEST SWAP1 POP DUP2 DUP2 SUB PUSH1 0x20 DUP4 ADD MSTORE PUSH2 0xABF DUP2 DUP7 PUSH2 0x845 JUMP JUMPDEST SWAP1 POP DUP2 DUP2 SUB PUSH1 0x40 DUP4 ADD MSTORE PUSH2 0xAD3 DUP2 DUP6 PUSH2 0x977 JUMP JUMPDEST SWAP1 POP DUP2 DUP2 SUB PUSH1 0x60 DUP4 ADD MSTORE PUSH2 0xAE7 DUP2 DUP5 PUSH2 0xA37 JUMP JUMPDEST SWAP1 POP SWAP6 SWAP5 POP POP POP POP POP JUMP JUMPDEST PUSH0 PUSH1 0x40 MLOAD SWAP1 POP SWAP1 JUMP JUMPDEST PUSH0 PUSH0 REVERT JUMPDEST PUSH0 PUSH0 REVERT JUMPDEST PUSH0 PUSH0 REVERT JUMPDEST PUSH0 PUSH0 REVERT JUMPDEST PUSH32 0x4E487B7100000000000000000000000000000000000000000000000000000000 PUSH0 MSTORE PUSH1 0x41 PUSH1 0x4 MSTORE PUSH1 0x24 PUSH0 REVERT JUMPDEST PUSH2 0xB41 DUP3 PUSH2 0x7DE JUMP JUMPDEST DUP2 ADD DUP2 DUP2 LT PUSH8 0xFFFFFFFFFFFFFFFF DUP3 GT OR ISZERO PUSH2 0xB60 JUMPI PUSH2 0xB5F PUSH2 0xB0B JUMP JUMPDEST JUMPDEST DUP1 PUSH1 0x40 MSTORE POP POP POP JUMP JUMPDEST PUSH0 PUSH2 0xB72 PUSH2 0xAF2 JUMP JUMPDEST SWAP1 POP PUSH2 0xB7E DUP3 DUP3 PUSH2 0xB38 JUMP JUMPDEST SWAP2 SWAP1 POP JUMP JUMPDEST PUSH0 PUSH8 0xFFFFFFFFFFFFFFFF DUP3 GT ISZERO PUSH2 0xB9D JUMPI PUSH2 0xB9C PUSH2 0xB0B JUMP JUMPDEST JUMPDEST PUSH2 0xBA6 DUP3 PUSH2 0x7DE JUMP JUMPDEST SWAP1 POP PUSH1 0x20 DUP2 ADD SWAP1 POP SWAP2 SWAP1 POP JUMP JUMPDEST DUP3 DUP2 DUP4 CALLDATACOPY PUSH0 DUP4 DUP4 ADD MSTORE POP POP POP JUMP JUMPDEST PUSH0 PUSH2 0xBD3 PUSH2 0xBCE DUP5 PUSH2 0xB83 JUMP JUMPDEST PUSH2 0xB69 JUMP JUMPDEST SWAP1 POP DUP3 DUP2 MSTORE PUSH1 0x20 DUP2 ADD DUP5 DUP5 DUP5 ADD GT ISZERO PUSH2 0xBEF JUMPI PUSH2 0xBEE PUSH2 0xB07 JUMP JUMPDEST JUMPDEST PUSH2 0xBFA DUP5 DUP3 DUP6 PUSH2 0xBB3 JUMP JUMPDEST POP SWAP4 SWAP3 POP POP POP JUMP JUMPDEST PUSH0 DUP3 PUSH1 0x1F DUP4 ADD SLT PUSH2 0xC16 JUMPI PUSH2 0xC15 PUSH2 0xB03 JUMP JUMPDEST JUMPDEST DUP2 CALLDATALOAD PUSH2 0xC26 DUP5 DUP3 PUSH1 0x20 DUP7 ADD PUSH2 0xBC1 JUMP JUMPDEST SWAP2 POP POP SWAP3 SWAP2 POP POP JUMP JUMPDEST PUSH1 0x2 DUP2 LT PUSH2 0xC3B JUMPI PUSH0 PUSH0 REVERT JUMPDEST POP JUMP JUMPDEST PUSH0 DUP2 CALLDATALOAD SWAP1 POP PUSH2 0xC4C DUP2 PUSH2 0xC2F JUMP JUMPDEST SWAP3 SWAP2 POP POP JUMP JUMPDEST PUSH2 0xC5B DUP2 PUSH2 0x9FC JUMP JUMPDEST DUP2 EQ PUSH2 0xC65 JUMPI PUSH0 PUSH0 REVERT JUMPDEST POP JUMP JUMPDEST PUSH0 DUP2 CALLDATALOAD SWAP1 POP PUSH2 0xC76 DUP2 PUSH2 0xC52 JUMP JUMPDEST SWAP3 SWAP2 POP POP JUMP JUMPDEST PUSH0 PUSH0 PUSH0 PUSH1 0x60 DUP5 DUP7 SUB SLT ISZERO PUSH2 0xC93 JUMPI PUSH2 0xC92 PUSH2 0xAFB JUMP JUMPDEST JUMPDEST PUSH0 DUP5 ADD CALLDATALOAD PUSH8 0xFFFFFFFFFFFFFFFF DUP2 GT ISZERO PUSH2 0xCB0 JUMPI PUSH2 0xCAF PUSH2 0xAFF JUMP JUMPDEST JUMPDEST PUSH2 0xCBC DUP7 DUP3 DUP8 ADD PUSH2 0xC02 JUMP JUMPDEST SWAP4 POP POP PUSH1 0x20 PUSH2 0xCCD DUP7 DUP3 DUP8 ADD PUSH2 0xC3E JUMP JUMPDEST SWAP3 POP POP PUSH1 0x40 PUSH2 0xCDE DUP7 DUP3 DUP8 ADD PUSH2 0xC68 JUMP JUMPDEST SWAP2 POP POP SWAP3 POP SWAP3 POP SWAP3 JUMP JUMPDEST PUSH2 0xCF1 DUP2 PUSH2 0x6F6 JUMP JUMPDEST DUP3 MSTORE POP POP JUMP JUMPDEST PUSH0 PUSH1 0x20 DUP3 ADD SWAP1 POP PUSH2 0xD0A PUSH0 DUP4 ADD DUP5 PUSH2 0xCE8 JUMP JUMPDEST SWAP3 SWAP2 POP POP JUMP JUMPDEST PUSH2 0xD19 DUP2 PUSH2 0x6F6 JUMP JUMPDEST DUP2 EQ PUSH2 0xD23 JUMPI PUSH0 PUSH0 REVERT JUMPDEST POP JUMP JUMPDEST PUSH0 DUP2 CALLDATALOAD SWAP1 POP PUSH2 0xD34 DUP2 PUSH2 0xD10 JUMP JUMPDEST SWAP3 SWAP2 POP POP JUMP JUMPDEST PUSH0 PUSH1 0x20 DUP3 DUP5 SUB SLT ISZERO PUSH2 0xD4F JUMPI PUSH2 0xD4E PUSH2 0xAFB JUMP JUMPDEST JUMPDEST PUSH0 PUSH2 0xD5C DUP5 DUP3 DUP6 ADD PUSH2 0xD26 JUMP JUMPDEST SWAP2 POP POP SWAP3 SWAP2 POP POP JUMP JUMPDEST PUSH0 DUP3 DUP3 MSTORE PUSH1 0x20 DUP3 ADD SWAP1 POP SWAP3 SWAP2 POP POP JUMP JUMPDEST PUSH0 PUSH2 0xD7F DUP3 PUSH2 0x7B6 JUMP JUMPDEST PUSH2 0xD89 DUP2 DUP6 PUSH2 0xD65 JUMP JUMPDEST SWAP4 POP PUSH2 0xD99 DUP2 DUP6 PUSH1 0x20 DUP7 ADD PUSH2 0x7D0 JUMP JUMPDEST PUSH2 0xDA2 DUP2 PUSH2 0x7DE JUMP JUMPDEST DUP5 ADD SWAP2 POP POP SWAP3 SWAP2 POP POP JUMP JUMPDEST PUSH2 0xDB6 DUP2 PUSH2 0x934 JUMP JUMPDEST DUP3 MSTORE POP POP JUMP JUMPDEST PUSH2 0xDC5 DUP2 PUSH2 0x9FC JUMP JUMPDEST DUP3 MSTORE POP POP JUMP JUMPDEST PUSH0 DUP2 ISZERO ISZERO SWAP1 POP SWAP2 SWAP1 POP JUMP JUMPDEST PUSH2 0xDDF DUP2 PUSH2 0xDCB JUMP JUMPDEST DUP3 MSTORE POP POP JUMP JUMPDEST PUSH0 PUSH1 0x80 DUP3 ADD SWAP1 POP DUP2 DUP2 SUB PUSH0 DUP4 ADD MSTORE PUSH2 0xDFD DUP2 DUP8 PUSH2 0xD75 JUMP JUMPDEST SWAP1 POP PUSH2 0xE0C PUSH1 0x20 DUP4 ADD DUP7 PUSH2 0xDAD JUMP JUMPDEST PUSH2 0xE19 PUSH1 0x40 DUP4 ADD DUP6 PUSH2 0xDBC JUMP JUMPDEST PUSH2 0xE26 PUSH1 0x60 DUP4 ADD DUP5 PUSH2 0xDD6 JUMP JUMPDEST SWAP6 SWAP5 POP POP POP POP POP JUMP JUMPDEST PUSH0 PUSH1 0x20 DUP3 DUP5 SUB SLT ISZERO PUSH2 0xE44 JUMPI PUSH2 0xE43 PUSH2 0xAFB JUMP JUMPDEST JUMPDEST PUSH0 PUSH2 0xE51 DUP5 DUP3 DUP6 ADD PUSH2 0xC68 JUMP JUMPDEST SWAP2 POP POP SWAP3 SWAP2 POP POP JUMP JUMPDEST PUSH32 0x4E487B7100000000000000000000000000000000000000000000000000000000 PUSH0 MSTORE PUSH1 0x32 PUSH1 0x4 MSTORE PUSH1 0x24 PUSH0 REVERT JUMPDEST PUSH32 0x4E487B7100000000000000000000000000000000000000000000000000000000 PUSH0 MSTORE PUSH1 0x22 PUSH1 0x4 MSTORE PUSH1 0x24 PUSH0 REVERT JUMPDEST PUSH0 PUSH1 0x2 DUP3 DIV SWAP1 POP PUSH1 0x1 DUP3 AND DUP1 PUSH2 0xECB JUMPI PUSH1 0x7F DUP3 AND SWAP2 POP JUMPDEST PUSH1 0x20 DUP3 LT DUP2 SUB PUSH2 0xEDE JUMPI PUSH2 0xEDD PUSH2 0xE87 JUMP JUMPDEST JUMPDEST POP SWAP2 SWAP1 POP JUMP JUMPDEST PUSH0 DUP2 SWAP1 POP SWAP3 SWAP2 POP POP JUMP JUMPDEST PUSH0 PUSH2 0xEF8 DUP3 PUSH2 0x7B6 JUMP JUMPDEST PUSH2 0xF02 DUP2 DUP6 PUSH2 0xEE4 JUMP JUMPDEST SWAP4 POP PUSH2 0xF12 DUP2 DUP6 PUSH1 0x20 DUP7 ADD PUSH2 0x7D0 JUMP JUMPDEST DUP1 DUP5 ADD SWAP2 POP POP SWAP3 SWAP2 POP POP JUMP JUMPDEST PUSH0 DUP2 PUSH1 0xF8 SHL SWAP1 POP SWAP2 SWAP1 POP JUMP JUMPDEST PUSH0 PUSH2 0xF34 DUP3 PUSH2 0xF1E JUMP JUMPDEST SWAP1 POP SWAP2 SWAP1 POP JUMP JUMPDEST PUSH2 0xF4C PUSH2 0xF47 DUP3 PUSH2 0x934 JUMP JUMPDEST PUSH2 0xF2A JUMP JUMPDEST DUP3 MSTORE POP POP JUMP JUMPDEST PUSH0 DUP2 SWAP1 POP SWAP2 SWAP1 POP JUMP JUMPDEST PUSH2 0xF6C PUSH2 0xF67 DUP3 PUSH2 0x9FC JUMP JUMPDEST PUSH2 0xF52 JUMP JUMPDEST DUP3 MSTORE POP POP JUMP JUMPDEST PUSH0 PUSH2 0xF7D DUP3 DUP7 PUSH2 0xEEE JUMP JUMPDEST SWAP2 POP PUSH2 0xF89 DUP3 DUP6 PUSH2 0xF3B JUMP JUMPDEST PUSH1 0x1 DUP3 ADD SWAP2 POP PUSH2 0xF99 DUP3 DUP5 PUSH2 0xF5B JUMP JUMPDEST PUSH1 0x20 DUP3 ADD SWAP2 POP DUP2 SWAP1 POP SWAP5 SWAP4 POP POP POP POP JUMP JUMPDEST PUSH32 0x436F7572736520616C7265616479206578697374730000000000000000000000 PUSH0 DUP3 ADD MSTORE POP JUMP JUMPDEST PUSH0 PUSH2 0xFDE PUSH1 0x15 DUP4 PUSH2 0xD65 JUMP JUMPDEST SWAP2 POP PUSH2 0xFE9 DUP3 PUSH2 0xFAA JUMP JUMPDEST PUSH1 0x20 DUP3 ADD SWAP1 POP SWAP2 SWAP1 POP JUMP JUMPDEST PUSH0 PUSH1 0x20 DUP3 ADD SWAP1 POP DUP2 DUP2 SUB PUSH0 DUP4 ADD MSTORE PUSH2 0x100B DUP2 PUSH2 0xFD2 JUMP JUMPDEST SWAP1 POP SWAP2 SWAP1 POP JUMP JUMPDEST PUSH0 DUP2 SWAP1 POP DUP2 PUSH0 MSTORE PUSH1 0x20 PUSH0 KECCAK256 SWAP1 POP SWAP2 SWAP1 POP JUMP JUMPDEST PUSH0 PUSH1 0x20 PUSH1 0x1F DUP4 ADD DIV SWAP1 POP SWAP2 SWAP1 POP JUMP JUMPDEST PUSH0 DUP3 DUP3 SHL SWAP1 POP SWAP3 SWAP2 POP POP JUMP JUMPDEST PUSH0 PUSH1 0x8 DUP4 MUL PUSH2 0x106E PUSH32 0xFFFFFFFFFFFFFFFFFFFFFFFFFFFFFFFFFFFFFFFFFFFFFFFFFFFFFFFFFFFFFFFF DUP3 PUSH2 0x1033 JUMP JUMPDEST PUSH2 0x1078 DUP7 DUP4 PUSH2 0x1033 JUMP JUMPDEST SWAP6 POP DUP1 NOT DUP5 AND SWAP4 POP DUP1 DUP7 AND DUP5 OR SWAP3 POP POP POP SWAP4 SWAP3 POP POP POP JUMP JUMPDEST PUSH0 DUP2 SWAP1 POP SWAP2 SWAP1 POP JUMP JUMPDEST PUSH0 PUSH2 0x10B3 PUSH2 0x10AE PUSH2 0x10A9 DUP5 PUSH2 0x9FC JUMP JUMPDEST PUSH2 0x1090 JUMP JUMPDEST PUSH2 0x9FC JUMP JUMPDEST SWAP1 POP SWAP2 SWAP1 POP JUMP JUMPDEST PUSH0 DUP2 SWAP1 POP SWAP2 SWAP1 POP JUMP JUMPDEST PUSH2 0x10CC DUP4 PUSH2 0x1099 JUMP JUMPDEST PUSH2 0x10E0 PUSH2 0x10D8 DUP3 PUSH2 0x10BA JUMP JUMPDEST DUP5 DUP5 SLOAD PUSH2 0x103F JUMP JUMPDEST DUP3 SSTORE POP POP POP POP JUMP JUMPDEST PUSH0 PUSH0 SWAP1 POP SWAP1 JUMP JUMPDEST PUSH2 0x10F7 PUSH2 0x10E8 JUMP JUMPDEST PUSH2 0x1102 DUP2 DUP5 DUP5 PUSH2 0x10C3 JUMP JUMPDEST POP POP POP JUMP JUMPDEST JUMPDEST DUP2 DUP2 LT ISZERO PUSH2 0x1125 JUMPI PUSH2 0x111A PUSH0 DUP3 PUSH2 0x10EF JUMP JUMPDEST PUSH1 0x1 DUP2 ADD SWAP1 POP PUSH2 0x1108 JUMP JUMPDEST POP POP JUMP JUMPDEST PUSH1 0x1F DUP3 GT ISZERO PUSH2 0x116A JUMPI PUSH2 0x113B DUP2 PUSH2 0x1012 JUMP JUMPDEST PUSH2 0x1144 DUP5 PUSH2 0x1024 JUMP JUMPDEST DUP2 ADD PUSH1 0x20 DUP6 LT ISZERO PUSH2 0x1153 JUMPI DUP2 SWAP1 POP JUMPDEST PUSH2 0x1167 PUSH2 0x115F DUP6 PUSH2 0x1024 JUMP JUMPDEST DUP4 ADD DUP3 PUSH2 0x1107 JUMP JUMPDEST POP POP JUMPDEST POP POP POP JUMP JUMPDEST PUSH0 DUP3 DUP3 SHR SWAP1 POP SWAP3 SWAP2 POP POP JUMP JUMPDEST PUSH0 PUSH2 0x118A PUSH0 NOT DUP5 PUSH1 0x8 MUL PUSH2 0x116F JUMP JUMPDEST NOT DUP1 DUP4 AND SWAP2 POP POP SWAP3 SWAP2 POP POP JUMP JUMPDEST PUSH0 PUSH2 0x11A2 DUP4 DUP4 PUSH2 0x117B JUMP JUMPDEST SWAP2 POP DUP3 PUSH1 0x2 MUL DUP3 OR SWAP1 POP SWAP3 SWAP2 POP POP JUMP JUMPDEST PUSH2 0x11BB DUP3 PUSH2 0x7B6 JUMP JUMPDEST PUSH8 0xFFFFFFFFFFFFFFFF DUP2 GT ISZERO PUSH2 0x11D4 JUMPI PUSH2 0x11D3 PUSH2 0xB0B JUMP JUMPDEST JUMPDEST PUSH2 0x11DE DUP3 SLOAD PUSH2 0xEB4 JUMP JUMPDEST PUSH2 0x11E9 DUP3 DUP3 DUP6 PUSH2 0x1129 JUMP JUMPDEST PUSH0 PUSH1 0x20 SWAP1 POP PUSH1 0x1F DUP4 GT PUSH1 0x1 DUP2 EQ PUSH2 0x121A JUMPI PUSH0 DUP5 ISZERO PUSH2 0x1208 JUMPI DUP3 DUP8 ADD MLOAD SWAP1 POP JUMPDEST PUSH2 0x1212 DUP6 DUP3 PUSH2 0x1197 JUMP JUMPDEST DUP7 SSTORE POP PUSH2 0x1279 JUMP JUMPDEST PUSH1 0x1F NOT DUP5 AND PUSH2 0x1228 DUP7 PUSH2 0x1012 JUMP JUMPDEST PUSH0 JUMPDEST DUP3 DUP2 LT ISZERO PUSH2 0x124F JUMPI DUP5 DUP10 ADD MLOAD DUP3 SSTORE PUSH1 0x1 DUP3 ADD SWAP2 POP PUSH1 0x20 DUP6 ADD SWAP5 POP PUSH1 0x20 DUP2 ADD SWAP1 POP PUSH2 0x122A JUMP JUMPDEST DUP7 DUP4 LT ISZERO PUSH2 0x126C JUMPI DUP5 DUP10 ADD MLOAD PUSH2 0x1268 PUSH1 0x1F DUP10 AND DUP3 PUSH2 0x117B JUMP JUMPDEST DUP4 SSTORE POP JUMPDEST PUSH1 0x1 PUSH1 0x2 DUP9 MUL ADD DUP9 SSTORE POP POP POP JUMPDEST POP POP POP POP POP POP JUMP INVALID LOG2 PUSH5 0x6970667358 0x22 SLT KECCAK256 SWAP9 0xC9 SWAP4 0xEC 0xAF 0x2D PUSH23 0xD1E49F515FB93EE28D633C55ED21E9B3CD9B211C37DAD8 JUMPI BLOBHASH PUSH5 0x736F6C6343 STOP ADDMOD SHR STOP CALLER "
				},
				"gasEstimates": {
					"creation": {
						"codeDepositCost": "958200",
						"executionCost": "992",
						"totalCost": "959192"
					},
					"external": {
						"addCourse(string,uint8,uint256)": "infinite",
						"courseCodes(uint256)": "4937",
						"courses(bytes32)": "infinite",
						"generateCode(string,uint8,uint256)": "infinite",
						"getAllCourses()": "infinite"
					}
				},
				"methodIdentifiers": {
					"addCourse(string,uint8,uint256)": "c88a3470",
					"courseCodes(uint256)": "f1c9342e",
					"courses(bytes32)": "c4b88751",
					"generateCode(string,uint8,uint256)": "0d190374",
					"getAllCourses()": "04e48bd1"
				}
			},
			"storageLayout": {
				"storage": [
					{
						"astId": 19,
						"contract": "course.sol:ClassManagement",
						"label": "courses",
						"offset": 0,
						"slot": "0",
						"type": "t_mapping(t_bytes32,t_struct(Course)14_storage)"
					},
					{
						"astId": 22,
						"contract": "course.sol:ClassManagement",
						"label": "courseCodes",
						"offset": 0,
						"slot": "1",
						"type": "t_array(t_bytes32)dyn_storage"
					}
				],
				"types": {
					"t_array(t_bytes32)dyn_storage": {
						"base": "t_bytes32",
						"encoding": "dynamic_array",
						"label": "bytes32[]",
						"numberOfBytes": "32"
					},
					"t_bool": {
						"encoding": "inplace",
						"label": "bool",
						"numberOfBytes": "1"
					},
					"t_bytes32": {
						"encoding": "inplace",
						"label": "bytes32",
						"numberOfBytes": "32"
					},
					"t_enum(Status)4": {
						"encoding": "inplace",
						"label": "enum Status",
						"numberOfBytes": "1"
					},
					"t_mapping(t_bytes32,t_struct(Course)14_storage)": {
						"encoding": "mapping",
						"key": "t_bytes32",
						"label": "mapping(bytes32 => struct Course)",
						"numberOfBytes": "32",
						"value": "t_struct(Course)14_storage"
					},
					"t_string_storage": {
						"encoding": "bytes",
						"label": "string",
						"numberOfBytes": "32"
					},
					"t_struct(Course)14_storage": {
						"encoding": "inplace",
						"label": "struct Course",
						"members": [
							{
								"astId": 6,
								"contract": "course.sol:ClassManagement",
								"label": "nama",
								"offset": 0,
								"slot": "0",
								"type": "t_string_storage"
							},
							{
								"astId": 9,
								"contract": "course.sol:ClassManagement",
								"label": "status",
								"offset": 0,
								"slot": "1",
								"type": "t_enum(Status)4"
							},
							{
								"astId": 11,
								"contract": "course.sol:ClassManagement",
								"label": "quota",
								"offset": 0,
								"slot": "2",
								"type": "t_uint256"
							},
							{
								"astId": 13,
								"contract": "course.sol:ClassManagement",
								"label": "exists",
								"offset": 0,
								"slot": "3",
								"type": "t_bool"
							}
						],
						"numberOfBytes": "128"
					},
					"t_uint256": {
						"encoding": "inplace",
						"label": "uint256",
						"numberOfBytes": "32"
					}
				}
			},
			"userdoc": {
				"kind": "user",
				"methods": {},
				"version": 1
			}
		}
	}
}